{
  "_format": "hh-sol-artifact-1",
  "contractName": "LendingPool",
  "sourceName": "contracts/LendingPool.sol",
  "abi": [
    {
      "inputs": [
        {
          "internalType": "address",
          "name": "_addressToTokenMap",
          "type": "address"
        },
        {
          "internalType": "address",
          "name": "_lendingConfig",
          "type": "address"
        },
        {
          "internalType": "address",
          "name": "_lendingHelper",
          "type": "address"
        },
        {
          "internalType": "address",
          "name": "_feewallet",
          "type": "address"
        }
      ],
      "stateMutability": "nonpayable",
      "type": "constructor"
    },
    {
      "anonymous": false,
      "inputs": [
        {
          "indexed": true,
          "internalType": "address",
          "name": "borrower",
          "type": "address"
        },
        {
          "indexed": true,
          "internalType": "address",
          "name": "_token",
          "type": "address"
        },
        {
          "indexed": true,
          "internalType": "uint256",
          "name": "_amount",
          "type": "uint256"
        }
      ],
      "name": "Borrow",
      "type": "event"
    },
    {
      "anonymous": false,
      "inputs": [
        {
          "indexed": true,
          "internalType": "address",
          "name": "lender",
          "type": "address"
        },
        {
          "indexed": true,
          "internalType": "address",
          "name": "_token",
          "type": "address"
        },
        {
          "indexed": true,
          "internalType": "uint256",
          "name": "_amount",
          "type": "uint256"
        }
      ],
      "name": "Lend",
      "type": "event"
    },
    {
      "anonymous": false,
      "inputs": [
        {
          "indexed": true,
          "internalType": "address",
          "name": "borrower",
          "type": "address"
        },
        {
          "indexed": true,
          "internalType": "address",
          "name": "_token",
          "type": "address"
        },
        {
          "indexed": true,
          "internalType": "uint256",
          "name": "_amount",
          "type": "uint256"
        }
      ],
      "name": "Repay",
      "type": "event"
    },
    {
      "anonymous": false,
      "inputs": [
        {
          "indexed": false,
          "internalType": "address",
          "name": "lender",
          "type": "address"
        },
        {
          "indexed": false,
          "internalType": "address",
          "name": "_token",
          "type": "address"
        },
        {
          "indexed": false,
          "internalType": "uint256",
          "name": "_amount",
          "type": "uint256"
        }
      ],
      "name": "TransferAsset",
      "type": "event"
    },
    {
      "anonymous": false,
      "inputs": [
        {
          "indexed": true,
          "internalType": "address",
          "name": "lender",
          "type": "address"
        },
        {
          "indexed": true,
          "internalType": "address",
          "name": "_token",
          "type": "address"
        },
        {
          "indexed": true,
          "internalType": "uint256",
          "name": "_amount",
          "type": "uint256"
        }
      ],
      "name": "Withdraw",
      "type": "event"
    },
    {
      "inputs": [
        {
          "internalType": "address",
          "name": "_token",
          "type": "address"
        },
        {
          "internalType": "uint256",
          "name": "_amount",
          "type": "uint256"
        }
      ],
      "name": "borrow",
      "outputs": [
        {
          "internalType": "bool",
          "name": "",
          "type": "bool"
        }
      ],
      "stateMutability": "nonpayable",
      "type": "function"
    },
    {
      "inputs": [
        {
          "internalType": "address",
          "name": "",
          "type": "address"
        },
        {
          "internalType": "uint256",
          "name": "",
          "type": "uint256"
        }
      ],
      "name": "borrowerAssets",
      "outputs": [
        {
          "internalType": "address",
          "name": "user",
          "type": "address"
        },
        {
          "internalType": "address",
          "name": "token",
          "type": "address"
        },
        {
          "internalType": "uint256",
          "name": "lentQty",
          "type": "uint256"
        },
        {
          "internalType": "uint256",
          "name": "borrowQty",
          "type": "uint256"
        },
        {
          "internalType": "uint256",
          "name": "lentApy",
          "type": "uint256"
        },
        {
          "internalType": "uint256",
          "name": "borrowApy",
          "type": "uint256"
        },
        {
          "internalType": "uint256",
          "name": "lendStartTimeStamp",
          "type": "uint256"
        },
        {
          "internalType": "uint256",
          "name": "borrowStartTimeStamp",
          "type": "uint256"
        }
      ],
      "stateMutability": "view",
      "type": "function"
    },
    {
      "inputs": [
        {
          "internalType": "address",
          "name": "_borrower",
          "type": "address"
        }
      ],
      "name": "getAssetsToBorrow",
      "outputs": [
        {
          "components": [
            {
              "internalType": "address",
              "name": "token",
              "type": "address"
            },
            {
              "internalType": "uint256",
              "name": "borrowQty",
              "type": "uint256"
            },
            {
              "internalType": "uint256",
              "name": "borrowApy",
              "type": "uint256"
            }
          ],
          "internalType": "struct LendingPool.BorrowAsset[]",
          "name": "",
          "type": "tuple[]"
        }
      ],
      "stateMutability": "view",
      "type": "function"
    },
    {
      "inputs": [
        {
          "internalType": "address",
          "name": "_borrower",
          "type": "address"
        },
        {
          "internalType": "address",
          "name": "_token",
          "type": "address"
        }
      ],
      "name": "getBorrowerAssetQty",
      "outputs": [
        {
          "internalType": "uint256",
          "name": "",
          "type": "uint256"
        }
      ],
      "stateMutability": "view",
      "type": "function"
    },
    {
      "inputs": [
        {
          "internalType": "address",
          "name": "_borrower",
          "type": "address"
        }
      ],
      "name": "getBorrowerAssets",
      "outputs": [
        {
          "components": [
            {
              "internalType": "address",
              "name": "user",
              "type": "address"
            },
            {
              "internalType": "address",
              "name": "token",
              "type": "address"
            },
            {
              "internalType": "uint256",
              "name": "lentQty",
              "type": "uint256"
            },
            {
              "internalType": "uint256",
              "name": "borrowQty",
              "type": "uint256"
            },
            {
              "internalType": "uint256",
              "name": "lentApy",
              "type": "uint256"
            },
            {
              "internalType": "uint256",
              "name": "borrowApy",
              "type": "uint256"
            },
            {
              "internalType": "uint256",
              "name": "lendStartTimeStamp",
              "type": "uint256"
            },
            {
              "internalType": "uint256",
              "name": "borrowStartTimeStamp",
              "type": "uint256"
            }
          ],
          "internalType": "struct LendingPool.UserAsset[]",
          "name": "",
          "type": "tuple[]"
        }
      ],
      "stateMutability": "view",
      "type": "function"
    },
    {
      "inputs": [
        {
          "internalType": "address",
          "name": "_lender",
          "type": "address"
        },
        {
          "internalType": "address",
          "name": "_token",
          "type": "address"
        }
      ],
      "name": "getLenderAssetQty",
      "outputs": [
        {
          "internalType": "uint256",
          "name": "",
          "type": "uint256"
        }
      ],
      "stateMutability": "view",
      "type": "function"
    },
    {
      "inputs": [
        {
          "internalType": "address",
          "name": "_lender",
          "type": "address"
        }
      ],
      "name": "getLenderAssets",
      "outputs": [
        {
          "components": [
            {
              "internalType": "address",
              "name": "user",
              "type": "address"
            },
            {
              "internalType": "address",
              "name": "token",
              "type": "address"
            },
            {
              "internalType": "uint256",
              "name": "lentQty",
              "type": "uint256"
            },
            {
              "internalType": "uint256",
              "name": "borrowQty",
              "type": "uint256"
            },
            {
              "internalType": "uint256",
              "name": "lentApy",
              "type": "uint256"
            },
            {
              "internalType": "uint256",
              "name": "borrowApy",
              "type": "uint256"
            },
            {
              "internalType": "uint256",
              "name": "lendStartTimeStamp",
              "type": "uint256"
            },
            {
              "internalType": "uint256",
              "name": "borrowStartTimeStamp",
              "type": "uint256"
            }
          ],
          "internalType": "struct LendingPool.UserAsset[]",
          "name": "",
          "type": "tuple[]"
        }
      ],
      "stateMutability": "view",
      "type": "function"
    },
    {
      "inputs": [
        {
          "internalType": "address",
          "name": "_token",
          "type": "address"
        }
      ],
      "name": "getTotalTokenSupplyInReserves",
      "outputs": [
        {
          "internalType": "uint256",
          "name": "",
          "type": "uint256"
        }
      ],
      "stateMutability": "view",
      "type": "function"
    },
    {
      "inputs": [
        {
          "internalType": "address",
          "name": "_user",
          "type": "address"
        },
        {
          "internalType": "enum LendingPool.TxMode",
          "name": "_txmode",
          "type": "uint8"
        }
      ],
      "name": "getUserTotalAvailableBalanceInUSD",
      "outputs": [
        {
          "internalType": "uint256",
          "name": "",
          "type": "uint256"
        }
      ],
      "stateMutability": "view",
      "type": "function"
    },
    {
      "inputs": [
        {
          "internalType": "address",
          "name": "_borrower",
          "type": "address"
        },
        {
          "internalType": "address",
          "name": "_token",
          "type": "address"
        },
        {
          "internalType": "uint256",
          "name": "borrowStartTimeStamp",
          "type": "uint256"
        }
      ],
      "name": "interestAccrued",
      "outputs": [
        {
          "internalType": "uint256",
          "name": "",
          "type": "uint256"
        }
      ],
      "stateMutability": "view",
      "type": "function"
    },
    {
      "inputs": [
        {
          "internalType": "address",
          "name": "_lender",
          "type": "address"
        },
        {
          "internalType": "address",
          "name": "_token",
          "type": "address"
        },
        {
          "internalType": "uint256",
          "name": "lendStartTimeStamp",
          "type": "uint256"
        }
      ],
      "name": "interestEarned",
      "outputs": [
        {
          "internalType": "uint256",
          "name": "",
          "type": "uint256"
        }
      ],
      "stateMutability": "view",
      "type": "function"
    },
    {
      "inputs": [
        {
          "internalType": "address",
          "name": "_borrower",
          "type": "address"
        },
        {
          "internalType": "address",
          "name": "_token",
          "type": "address"
        }
      ],
      "name": "isTokenBorrowed",
      "outputs": [
        {
          "internalType": "bool",
          "name": "",
          "type": "bool"
        }
      ],
      "stateMutability": "view",
      "type": "function"
    },
    {
      "inputs": [
        {
          "internalType": "address",
          "name": "_token",
          "type": "address"
        }
      ],
      "name": "isTokenInReserve",
      "outputs": [
        {
          "internalType": "bool",
          "name": "",
          "type": "bool"
        }
      ],
      "stateMutability": "view",
      "type": "function"
    },
    {
      "inputs": [
        {
          "internalType": "address",
          "name": "_token",
          "type": "address"
        },
        {
          "internalType": "uint256",
          "name": "_amount",
          "type": "uint256"
        }
      ],
      "name": "lend",
      "outputs": [],
      "stateMutability": "payable",
      "type": "function"
    },
    {
      "inputs": [
        {
          "internalType": "address",
          "name": "",
          "type": "address"
        },
        {
          "internalType": "uint256",
          "name": "",
          "type": "uint256"
        }
      ],
      "name": "lenderAssets",
      "outputs": [
        {
          "internalType": "address",
          "name": "user",
          "type": "address"
        },
        {
          "internalType": "address",
          "name": "token",
          "type": "address"
        },
        {
          "internalType": "uint256",
          "name": "lentQty",
          "type": "uint256"
        },
        {
          "internalType": "uint256",
          "name": "borrowQty",
          "type": "uint256"
        },
        {
          "internalType": "uint256",
          "name": "lentApy",
          "type": "uint256"
        },
        {
          "internalType": "uint256",
          "name": "borrowApy",
          "type": "uint256"
        },
        {
          "internalType": "uint256",
          "name": "lendStartTimeStamp",
          "type": "uint256"
        },
        {
          "internalType": "uint256",
          "name": "borrowStartTimeStamp",
          "type": "uint256"
        }
      ],
      "stateMutability": "view",
      "type": "function"
    },
    {
      "inputs": [
        {
          "internalType": "address",
          "name": "_token",
          "type": "address"
        },
        {
          "internalType": "uint256",
          "name": "_amount",
          "type": "uint256"
        }
      ],
      "name": "repay",
      "outputs": [],
      "stateMutability": "nonpayable",
      "type": "function"
    },
    {
      "inputs": [
        {
          "internalType": "uint256",
          "name": "",
          "type": "uint256"
        }
      ],
      "name": "reserveAssets",
      "outputs": [
        {
          "internalType": "address",
          "name": "",
          "type": "address"
        }
      ],
      "stateMutability": "view",
      "type": "function"
    },
    {
      "inputs": [
        {
          "internalType": "address",
          "name": "",
          "type": "address"
        }
      ],
      "name": "reserves",
      "outputs": [
        {
          "internalType": "uint256",
          "name": "",
          "type": "uint256"
        }
      ],
      "stateMutability": "view",
      "type": "function"
    },
    {
      "inputs": [
        {
          "internalType": "address",
          "name": "_token",
          "type": "address"
        },
        {
          "internalType": "uint256",
          "name": "_amount",
          "type": "uint256"
        }
      ],
      "name": "withdraw",
      "outputs": [
        {
          "internalType": "bool",
          "name": "",
          "type": "bool"
        }
      ],
      "stateMutability": "payable",
      "type": "function"
    },
    {
      "stateMutability": "payable",
      "type": "receive"
    }
  ],
  "bytecode": "0x60806040523480156200001157600080fd5b5060405162003d7738038062003d778339810160408190526200003491620000aa565b6001600081905580546001600160a01b039586166001600160a01b031991821617909155600280549486169482169490941790935560038054928516928416929092179091556004805491909316911617905562000107565b80516001600160a01b0381168114620000a557600080fd5b919050565b60008060008060808587031215620000c157600080fd5b620000cc856200008d565b9350620000dc602086016200008d565b9250620000ec604086016200008d565b9150620000fc606086016200008d565b905092959194509250565b613c6080620001176000396000f3fe6080604052600436106101185760003560e01c8063a2fb342d116100a0578063ddd44c9611610064578063ddd44c9614610381578063e59b785d146103a1578063e94b8590146103c1578063f3fef3a3146103e1578063f4234c8f146103f457600080fd5b8063a2fb342d146102e1578063b36d4ec7146102f4578063d0278dcd14610314578063d219ad8f14610334578063d66bd5241461035457600080fd5b806322867d78116100e757806322867d7814610219578063243105981461023b57806337973e5f1461025b5780634b8a35291461029357806388c29474146102b357600080fd5b80630792d9e9146101245780630f11c9a6146101595780631fe67ce61461018657806320d6cc5d146101b357600080fd5b3661011f57005b600080fd5b34801561013057600080fd5b5061014461013f36600461378a565b61042a565b60405190151581526020015b60405180910390f35b34801561016557600080fd5b50610179610174366004613768565b6104c9565b6040516101509190613a04565b34801561019257600080fd5b506101a66101a1366004613768565b610883565b6040516101509190613a66565b3480156101bf57600080fd5b506101d36101ce366004613834565b610951565b604080516001600160a01b03998a168152989097166020890152958701949094526060860192909252608085015260a084015260c083015260e082015261010001610150565b34801561022557600080fd5b50610239610234366004613834565b6109bf565b005b34801561024757600080fd5b50610144610256366004613768565b6110a9565b34801561026757600080fd5b5061027b610276366004613922565b611117565b6040516001600160a01b039091168152602001610150565b34801561029f57600080fd5b506101446102ae366004613834565b611141565b3480156102bf57600080fd5b506102d36102ce36600461378a565b6118f8565b604051908152602001610150565b6102396102ef366004613834565b6119c4565b34801561030057600080fd5b506101a661030f366004613768565b61245f565b34801561032057600080fd5b506102d361032f3660046137bd565b61251f565b34801561034057600080fd5b506102d361034f3660046137f9565b6125e5565b34801561036057600080fd5b506102d361036f366004613768565b60056020526000908152604090205481565b34801561038d57600080fd5b506102d361039c36600461378a565b61297d565b3480156103ad57600080fd5b506101d36103bc366004613834565b612a49565b3480156103cd57600080fd5b506102d36103dc3660046137bd565b612a65565b6101446103ef366004613834565b612b34565b34801561040057600080fd5b506102d361040f366004613768565b6001600160a01b031660009081526005602052604090205490565b6001600160a01b038216600090815260086020526040812054815b818110156104bc576001600160a01b0385811660009081526008602052604090208054918616918390811061047c5761047c613bfe565b60009182526020909120600160089092020101546001600160a01b031614156104aa576001925050506104c3565b806104b481613ba1565b915050610445565b5060009150505b92915050565b60606001600160a01b0382166105185760405162461bcd60e51b815260206004820152600f60248201526e496e76616c6964206164647265737360881b60448201526064015b60405180910390fd5b60006105258360006125e5565b60065490915060008167ffffffffffffffff81111561054657610546613c14565b6040519080825280602002602001820160405280156105a457816020015b610591604051806060016040528060006001600160a01b0316815260200160008152602001600081525090565b8152602001906001900390816105645790505b5090506000805b83811015610878576000600682815481106105c8576105c8613bfe565b600091825260209091200154600254604051630dd10adb60e21b81526001600160a01b039283166004820181905293509116906337442b6c9060240160206040518083038186803b15801561061c57600080fd5b505afa158015610630573d6000803e3d6000fd5b505050506040513d601f19601f82011682018060405250810190610654919061385e565b156108655760035460405163012721ed60e71b81526001600160a01b038381166004830152602482018990526000921690637ae2b5c7908290639390f6809060440160206040518083038186803b1580156106ae57600080fd5b505afa1580156106c2573d6000803e3d6000fd5b505050506040513d601f19601f820116820180604052508101906106e6919061393b565b6001600160a01b03851660009081526005602052604090205461071290670de0b6b3a764000090613b1d565b6040516001600160e01b031960e085901b1681526004810192909252602482015260440160206040518083038186803b15801561074e57600080fd5b505afa158015610762573d6000803e3d6000fd5b505050506040513d601f19601f82011682018060405250810190610786919061393b565b90508015610863576040518060600160405280836001600160a01b03168152602001828152602001600260009054906101000a90046001600160a01b03166001600160a01b031663602839db6040518163ffffffff1660e01b815260040160206040518083038186803b1580156107fc57600080fd5b505afa158015610810573d6000803e3d6000fd5b505050506040513d601f19601f82011682018060405250810190610834919061393b565b81525085858151811061084957610849613bfe565b6020026020010181905250838061085f90613ba1565b9450505b505b508061087081613ba1565b9150506105ab565b509095945050505050565b6001600160a01b0381166000908152600860209081526040808320805482518185028101850190935280835260609492939192909184015b8282101561094657600084815260209081902060408051610100810182526008860290920180546001600160a01b039081168452600180830154909116848601526002820154928401929092526003810154606084015260048101546080840152600581015460a0840152600681015460c08401526007015460e083015290835290920191016108bb565b505050509050919050565b6008602052816000526040600020818154811061096d57600080fd5b6000918252602090912060089091020180546001820154600283015460038401546004850154600586015460068701546007909701546001600160a01b03968716995094909516965091949093919288565b6109c761335b565b3360008181526007602052604081205484915b81811015610ad657610a34848460076000886001600160a01b03166001600160a01b031681526020019081526020016000208481548110610a1d57610a1d613bfe565b90600052602060002090600802016006015461251f565b6001600160a01b0385166000908152600760205260409020805483908110610a5e57610a5e613bfe565b90600052602060002090600802016002016000828254610a7e9190613b05565b90915550506001600160a01b0384166000908152600760205260409020805442919083908110610ab057610ab0613bfe565b600091825260209091206006600890920201015580610ace81613ba1565b9150506109da565b503360008181526008602052604081205487915b81811015610be657610b44848460086000886001600160a01b03166001600160a01b031681526020019081526020016000208481548110610b2d57610b2d613bfe565b906000526020600020906008020160070154612a65565b6001600160a01b0385166000908152600860205260409020805483908110610b6e57610b6e613bfe565b90600052602060002090600802016003016000828254610b8e9190613b05565b90915550506001600160a01b0384166000908152600860205260409020805442919083908110610bc057610bc0613bfe565b600091825260209091206007600890920201015580610bde81613ba1565b915050610aea565b5033610bf2818a61042a565b610c4a5760405162461bcd60e51b815260206004820152602360248201527f546f6b656e20776173206e6f7420626f72726f7765642c2043616e277420526560448201526270617960e81b606482015260840161050f565b610c54818a61297d565b881115610cb95760405162461bcd60e51b815260206004820152602d60248201527f526570617920416d6f756e742073686f756c64206c657373207468616e20626f60448201526c1c9c9bddd95908185b5bdd5b9d609a1b606482015260840161050f565b610cc58982308b6133b5565b6001600160a01b038916600090815260056020526040812080548a9290610ced908490613b05565b90915550506001600160a01b038116600090815260086020526040812054905b81811015611051576001600160a01b0383811660009081526008602052604090208054918d169183908110610d4457610d44613bfe565b60009182526020909120600160089092020101546001600160a01b03161415610dfc576001600160a01b038316600090815260086020526040902080548b919083908110610d9457610d94613bfe565b90600052602060002090600802016003016000828254610db49190613b5e565b90915550506001600160a01b0383166000908152600860205260409020805442919083908110610de657610de6613bfe565b9060005260206000209060080201600701819055505b6001600160a01b0383166000908152600860205260409020805482908110610e2657610e26613bfe565b9060005260206000209060080201600301546000141561103f576001600160a01b0383166000908152600860205260409020805482908110610e6a57610e6a613bfe565b6000918252602080832060089283020180546001600160a01b0319908116825560018083018054909216909155600282018590556003820185905560048201859055600582018590556006820185905560079091018490556001600160a01b0387168452919052604090912090610ee19084613b5e565b81548110610ef157610ef1613bfe565b906000526020600020906008020160086000856001600160a01b03166001600160a01b031681526020019081526020016000208281548110610f3557610f35613bfe565b600091825260208083208454600893840290910180546001600160a01b03199081166001600160a01b0393841617825560018088015490830180549092169084161790556002808701549082015560038087015490820155600480870154908201556005808701549082015560068087015490820155600795860154950194909455928616825290915260409020805480610fd257610fd2613be8565b60008281526020812060086000199093019283020180546001600160a01b03199081168255600182810180549092169091556002820183905560038201839055600482018390556005820183905560068201839055600790910191909155915561103c9083613b5e565b91505b8061104981613ba1565b915050610d0d565b50888a6001600160a01b0316836001600160a01b03167f05f2eeda0e08e4b437f487c8d7d29b14537d15e3488170dc3de5dbdf8dac468460405160405180910390a450505050505050506110a56001600055565b5050565b600654600090815b8181101561110d57836001600160a01b0316600682815481106110d6576110d6613bfe565b6000918252602090912001546001600160a01b031614156110fb575060019392505050565b8061110581613ba1565b9150506110b1565b5060009392505050565b6006818154811061112757600080fd5b6000918252602090912001546001600160a01b0316905081565b600061114b61335b565b3360008181526007602052604081205485915b81811015611243576111a1848460076000886001600160a01b03166001600160a01b031681526020019081526020016000208481548110610a1d57610a1d613bfe565b6001600160a01b03851660009081526007602052604090208054839081106111cb576111cb613bfe565b906000526020600020906008020160020160008282546111eb9190613b05565b90915550506001600160a01b038416600090815260076020526040902080544291908390811061121d5761121d613bfe565b60009182526020909120600660089092020101558061123b81613ba1565b91505061115e565b503360008181526008602052604081205488915b8181101561133c5761129a848460086000886001600160a01b03166001600160a01b031681526020019081526020016000208481548110610b2d57610b2d613bfe565b6001600160a01b03851660009081526008602052604090208054839081106112c4576112c4613bfe565b906000526020600020906008020160030160008282546112e49190613b05565b90915550506001600160a01b038416600090815260086020526040902080544291908390811061131657611316613bfe565b60009182526020909120600760089092020101558061133481613ba1565b915050611257565b506003546040516325d07a9560e01b81526001600160a01b038b81166004830152602482018b905233926000929116906325d07a959060440160206040518083038186803b15801561138d57600080fd5b505afa1580156113a1573d6000803e3d6000fd5b505050506040513d601f19601f820116820180604052508101906113c5919061393b565b905060006113d48360006125e5565b9050808211156114265760405162461bcd60e51b815260206004820152601c60248201527f4e6f7420656e6f7567682062616c616e636520746f20626f72726f7700000000604482015260640161050f565b6001600160a01b038c166000908152600560205260409020548b11156114a35760405162461bcd60e51b815260206004820152602c60248201527f4e6f7420656e6f7567682071747920696e20746865207265736572766520706f60448201526b6f6c20746f20626f72726f7760a01b606482015260840161050f565b6001600160a01b0383166114f15760405162461bcd60e51b81526020600482015260156024820152745472616e73666572204e6f7420506f737369626c6560581b604482015260640161050f565b6114fa8c613426565b611671576000604051806101000160405280856001600160a01b031681526020018e6001600160a01b03168152602001600081526020018d815260200160008152602001600260009054906101000a90046001600160a01b03166001600160a01b031663602839db6040518163ffffffff1660e01b815260040160206040518083038186803b15801561158c57600080fd5b505afa1580156115a0573d6000803e3d6000fd5b505050506040513d601f19601f820116820180604052508101906115c4919061393b565b815260006020808301829052426040938401526001600160a01b03888116835260088083528484208054600180820183559186529484902087519590920290910180546001600160a01b0319908116958416959095178155928601519083018054909416911617909155908201516002820155606082015160038201556080820151600482015560a0820151600582015560c0820151600682015560e09091015160079091015550611867565b6001600160a01b038316600090815260086020526040812054905b81811015611864578d6001600160a01b031660086000876001600160a01b03166001600160a01b0316815260200190815260200160002082815481106116d4576116d4613bfe565b60009182526020909120600160089092020101546001600160a01b03161415611852576001600160a01b038516600090815260086020526040902080548e91908390811061172457611724613bfe565b906000526020600020906008020160030160008282546117449190613b05565b90915550506002546040805163602839db60e01b815290516001600160a01b039092169163602839db91600480820192602092909190829003018186803b15801561178e57600080fd5b505afa1580156117a2573d6000803e3d6000fd5b505050506040513d601f19601f820116820180604052508101906117c6919061393b565b6001600160a01b03861660009081526008602052604090208054839081106117f0576117f0613bfe565b9060005260206000209060080201600501819055504260086000876001600160a01b03166001600160a01b03168152602001908152602001600020828154811061183c5761183c613bfe565b9060005260206000209060080201600701819055505b8061185c81613ba1565b91505061168c565b50505b6001600160a01b038c16600090815260056020526040812080548d929061188f908490613b5e565b909155506118a090508c848d6134ac565b8a8c6001600160a01b0316846001600160a01b03167f312a5e5e1079f5dda4e95dbbd0b908b291fd5b992ef22073643ab691572c5b5260405160405180910390a4600199505050505050505050506104c36001600055565b6001600160a01b038216600090815260076020526040812054815b818110156104bc576001600160a01b0385811660009081526007602052604090208054918616918390811061194a5761194a613bfe565b60009182526020909120600160089092020101546001600160a01b031614156119b2576001600160a01b038516600090815260076020526040902080548290811061199757611997613bfe565b906000526020600020906008020160020154925050506104c3565b806119bc81613ba1565b915050611913565b6119cc61335b565b3360008181526007602052604081205484915b81811015611ac457611a22848460076000886001600160a01b03166001600160a01b031681526020019081526020016000208481548110610a1d57610a1d613bfe565b6001600160a01b0385166000908152600760205260409020805483908110611a4c57611a4c613bfe565b90600052602060002090600802016002016000828254611a6c9190613b05565b90915550506001600160a01b0384166000908152600760205260409020805442919083908110611a9e57611a9e613bfe565b600091825260209091206006600890920201015580611abc81613ba1565b9150506119df565b50600154604051631ee144a160e31b81526001600160a01b038781166004830152339260009291169063f70a25089060240160206040518083038186803b158015611b0e57600080fd5b505afa158015611b22573d6000803e3d6000fd5b505050506040513d601f19601f82011682018060405250810190611b46919061385e565b611b51576000611b54565b60015b600154604051631ee144a160e31b81526001600160a01b038a811660048301529293506000929091169063f70a25089060240160206040518083038186803b158015611b9f57600080fd5b505afa158015611bb3573d6000803e3d6000fd5b505050506040513d601f19601f82011682018060405250810190611bd7919061385e565b611be2576001611be5565b60005b6001546040516364d9729160e11b81526001600160a01b038b811660048301529293506000929091169063c9b2e5229060240160006040518083038186803b158015611c3057600080fd5b505afa158015611c44573d6000803e3d6000fd5b505050506040513d6000823e601f3d908101601f19168201604052611c6c9190810190613880565b600254604051630944076f60e21b81526001600160a01b038c811660048301529293509116906325101dbc9060240160206040518083038186803b158015611cb357600080fd5b505afa158015611cc7573d6000803e3d6000fd5b505050506040513d601f19601f82011682018060405250810190611ceb919061385e565b611f065760025460408051632e0f262560e01b815290516001600160a01b0390921691634c2fad06918c918691889160009160019189918991632e0f262591600480820192602092909190829003018186803b158015611d4a57600080fd5b505afa158015611d5e573d6000803e3d6000fd5b505050506040513d601f19601f82011682018060405250810190611d82919061393b565b600260009054906101000a90046001600160a01b03166001600160a01b0316631500c2ff6040518163ffffffff1660e01b815260040160206040518083038186803b158015611dd057600080fd5b505afa158015611de4573d6000803e3d6000fd5b505050506040513d601f19601f82011682018060405250810190611e08919061393b565b600260009054906101000a90046001600160a01b03166001600160a01b03166390a8ae9b6040518163ffffffff1660e01b815260040160206040518083038186803b158015611e5657600080fd5b505afa158015611e6a573d6000803e3d6000fd5b505050506040513d601f19601f82011682018060405250810190611e8e919061393b565b6040518a63ffffffff1660e01b8152600401611eb29998979695949392919061399c565b602060405180830381600087803b158015611ecc57600080fd5b505af1158015611ee0573d6000803e3d6000fd5b505050506040513d601f19601f82011682018060405250810190611f04919061385e565b505b600154604051631ee144a160e31b81526001600160a01b038b811660048301529091169063f70a25089060240160206040518083038186803b158015611f4b57600080fd5b505afa158015611f5f573d6000803e3d6000fd5b505050506040513d601f19601f82011682018060405250810190611f83919061385e565b1561201757604051600090309034908381818185875af1925050503d8060008114611fca576040519150601f19603f3d011682016040523d82523d6000602084013e611fcf565b606091505b50509050806120115760405162461bcd60e51b815260206004820152600e60248201526d11195c1bdcda5d0819985a5b195960921b604482015260640161050f565b50612023565b6120238985308b6133b5565b6001600160a01b038916600090815260056020526040812080548a929061204b908490613b05565b90915550506001600160a01b0384166000908152600760205260409020546120728a6134e1565b6121e7576000604051806101000160405280876001600160a01b031681526020018c6001600160a01b031681526020018b815260200160008152602001600260009054906101000a90046001600160a01b03166001600160a01b0316635b72a33a6040518163ffffffff1660e01b815260040160206040518083038186803b1580156120fd57600080fd5b505afa158015612111573d6000803e3d6000fd5b505050506040513d601f19601f82011682018060405250810190612135919061393b565b8152600060208083018290524260408085019190915260609384018390526001600160a01b03808c168452600780845282852080546001818101835591875295859020885160089097020180549684166001600160a01b031997881617815594880151908501805491909316951694909417905584015160028201559183015160038301556080830151600483015560a0830151600583015560c0830151600683015560e090920151910155506123b3565b60005b818110156123b1576001600160a01b0386811660009081526007602052604090208054918d16918390811061222157612221613bfe565b60009182526020909120600160089092020101546001600160a01b0316141561239f576001600160a01b038616600090815260076020526040902080548b91908390811061227157612271613bfe565b906000526020600020906008020160020160008282546122919190613b05565b909155505060025460408051632db9519d60e11b815290516001600160a01b0390921691635b72a33a91600480820192602092909190829003018186803b1580156122db57600080fd5b505afa1580156122ef573d6000803e3d6000fd5b505050506040513d601f19601f82011682018060405250810190612313919061393b565b6001600160a01b038716600090815260076020526040902080548390811061233d5761233d613bfe565b9060005260206000209060080201600401819055504260076000886001600160a01b03166001600160a01b03168152602001908152602001600020828154811061238957612389613bfe565b9060005260206000209060080201600601819055505b806123a981613ba1565b9150506121ea565b505b6123bc8a6110a9565b61240c57600680546001810182556000919091527ff652222313e28459528d920b65115c16c04f3efc82aaedc97be59f3f377c0d3f0180546001600160a01b0319166001600160a01b038c161790555b888a6001600160a01b0316866001600160a01b03167f11dd72a5d477527ee1cbe309212bb368745a98cf1dc3befcac7eef4988a957c260405160405180910390a450505050505050506110a56001600055565b6001600160a01b038116600090815260076020908152604080832080548251818502810185019093528083526060949293919290918401821561094657600084815260209081902060408051610100810182526008860290920180546001600160a01b039081168452600180830154909116848601526002820154928401929092526003810154606084015260048101546080840152600581015460a0840152600681015460c08401526007015460e083015290835290920191016108bb565b6003546001600160a01b0383811660009081526005602052604080822054905163364d04bd60e21b81526004810186905260248101919091529092670de0b6b3a764000092169063d93412f49060440160206040518083038186803b15801561258757600080fd5b505afa15801561259b573d6000803e3d6000fd5b505050506040513d601f19601f820116820180604052508101906125bf919061393b565b6125c986866118f8565b6125d39190613b3f565b6125dd9190613b1d565b949350505050565b6001600160a01b03821660009081526007602052604081205481908190815b8181101561274e576003546001600160a01b038881166000908152600760205260409020805491909216916325d07a95918490811061264557612645613bfe565b906000526020600020906008020160010160009054906101000a90046001600160a01b0316600760008b6001600160a01b03166001600160a01b0316815260200190815260200160002084815481106126a0576126a0613bfe565b60009182526020909120600260089092020101546040516001600160e01b031960e085901b1681526001600160a01b039092166004830152602482015260440160206040518083038186803b1580156126f857600080fd5b505afa15801561270c573d6000803e3d6000fd5b505050506040513d601f19601f82011682018060405250810190612730919061393b565b61273a9085613b05565b93508061274681613ba1565b915050612604565b506001600160a01b038616600090815260086020526040812054905b8181101561289b576003546001600160a01b038981166000908152600860205260409020805491909216916325d07a9591849081106127ab576127ab613bfe565b60009182526020808320600892830201600101546001600160a01b038e811685529290915260409092208054919092169190859081106127ed576127ed613bfe565b60009182526020909120600360089092020101546040516001600160e01b031960e085901b1681526001600160a01b039092166004830152602482015260440160206040518083038186803b15801561284557600080fd5b505afa158015612859573d6000803e3d6000fd5b505050506040513d601f19601f8201168201806040525081019061287d919061393b565b6128879085613b05565b93508061289381613ba1565b91505061276a565b5060008660018111156128b0576128b0613bd2565b141561296857826064600260009054906101000a90046001600160a01b03166001600160a01b0316631500c2ff6040518163ffffffff1660e01b815260040160206040518083038186803b15801561290757600080fd5b505afa15801561291b573d6000803e3d6000fd5b505050506040513d601f19601f8201168201806040525081019061293f919061393b565b6129499087613b3f565b6129539190613b1d565b61295d9190613b5e565b9450505050506104c3565b6129728385613b5e565b979650505050505050565b6001600160a01b038216600090815260086020526040812054815b818110156104bc576001600160a01b038581166000908152600860205260409020805491861691839081106129cf576129cf613bfe565b60009182526020909120600160089092020101546001600160a01b03161415612a37576001600160a01b0385166000908152600860205260409020805482908110612a1c57612a1c613bfe565b906000526020600020906008020160030154925050506104c3565b80612a4181613ba1565b915050612998565b6007602052816000526040600020818154811061096d57600080fd5b600080612a72858561297d565b6003546001600160a01b0386811660009081526005602052604080822054905163364d04bd60e21b81526004810189905260248101919091529394509291169063d93412f49060440160206040518083038186803b158015612ad357600080fd5b505afa158015612ae7573d6000803e3d6000fd5b505050506040513d601f19601f82011682018060405250810190612b0b919061393b565b9050670de0b6b3a7640000612b208284613b3f565b612b2a9190613b1d565b9695505050505050565b6000612b3e61335b565b3360008181526007602052604081205485915b81811015612c3657612b94848460076000886001600160a01b03166001600160a01b031681526020019081526020016000208481548110610a1d57610a1d613bfe565b6001600160a01b0385166000908152600760205260409020805483908110612bbe57612bbe613bfe565b90600052602060002090600802016002016000828254612bde9190613b05565b90915550506001600160a01b0384166000908152600760205260409020805442919083908110612c1057612c10613bfe565b600091825260209091206006600890920201015580612c2e81613ba1565b915050612b51565b5033612c41876134e1565b612c7f5760405162461bcd60e51b815260206004820152600f60248201526e2737ba103a37b5b2b71037bbb732b960891b604482015260640161050f565b6003546000906001600160a01b0316639390f68089612c9f8560016125e5565b6040516001600160e01b031960e085901b1681526001600160a01b039092166004830152602482015260440160206040518083038186803b158015612ce357600080fd5b505afa158015612cf7573d6000803e3d6000fd5b505050506040513d601f19601f82011682018060405250810190612d1b919061393b565b612d2d90670de0b6b3a7640000613b3f565b905086811115612d895760405162461bcd60e51b815260206004820152602160248201527f43616e6e6f74207769746864726177206d6f7265207468616e2062616c616e636044820152606560f81b606482015260840161050f565b6001600160a01b038816600090815260056020526040902054871115612df15760405162461bcd60e51b815260206004820152601a60248201527f4e6f7420656e6f7567682071747920746f207769746864726177000000000000604482015260640161050f565b6001600160a01b03881660009081526005602052604081208054899290612e19908490613b5e565b90915550506001600160a01b038216600090815260076020526040812054905b8181101561317b576001600160a01b0384811660009081526007602052604090208054918c169183908110612e7057612e70613bfe565b60009182526020909120600160089092020101546001600160a01b03161415612f28576001600160a01b038416600090815260076020526040902080548a919083908110612ec057612ec0613bfe565b90600052602060002090600802016002016000828254612ee09190613b5e565b90915550506001600160a01b0384166000908152600760205260409020805442919083908110612f1257612f12613bfe565b9060005260206000209060080201600601819055505b6001600160a01b0384166000908152600760205260409020805482908110612f5257612f52613bfe565b90600052602060002090600802016002015460001415613169576001600160a01b0384166000908152600760205260409020805482908110612f9657612f96613bfe565b60009182526020808320600890920290910180546001600160a01b0319908116825560018083018054909216909155600282018490556003820184905560048201849055600582018490556006820184905560079182018490556001600160a01b0388168452915260409091209061300e9084613b5e565b8154811061301e5761301e613bfe565b906000526020600020906008020160076000866001600160a01b03166001600160a01b03168152602001908152602001600020828154811061306257613062613bfe565b60009182526020808320845460089093020180546001600160a01b03199081166001600160a01b039485161782556001808701549083018054909216908516179055600280860154908201556003808601549082015560048086015490820155600580860154908201556006808601549082015560079485015490850155908716825291909152604090208054806130fc576130fc613be8565b60008281526020812060086000199093019283020180546001600160a01b0319908116825560018281018054909216909155600282018390556003820183905560048201839055600582018390556006820183905560079091019190915591556131669083613b5e565b91505b8061317381613ba1565b915050612e39565b506000606461318b60028b613b3f565b6131959190613b1d565b905060006131a3828b613b5e565b600154604051631ee144a160e31b81526001600160a01b038e8116600483015292935091169063f70a25089060240160206040518083038186803b1580156131ea57600080fd5b505afa1580156131fe573d6000803e3d6000fd5b505050506040513d601f19601f82011682018060405250810190613222919061385e565b156132e1576000856001600160a01b03168260405160006040518083038185875af1925050503d8060008114613274576040519150601f19603f3d011682016040523d82523d6000602084013e613279565b606091505b50509050806132db5760405162461bcd60e51b815260206004820152602860248201527f5472616e7366657220746f204c656e6465722077616c6c6574206e6f7420737560448201526718d8d95cdcd99d5b60c21b606482015260840161050f565b506132ec565b6132ec8b86836134ac565b600454613304908c906001600160a01b0316846134ac565b898b6001600160a01b0316866001600160a01b03167f9b1bfa7fa9ee420a16e124f794c35ac9f90472acc99140eb2f6447c714cad8eb60405160405180910390a46001985050505050505050506104c36001600055565b600260005414156133ae5760405162461bcd60e51b815260206004820152601f60248201527f5265656e7472616e637947756172643a207265656e7472616e742063616c6c00604482015260640161050f565b6002600055565b6040516001600160a01b03808516602483015283166044820152606481018290526134209085906323b872dd60e01b906084015b60408051601f198184030181529190526020810180516001600160e01b03166001600160e01b031990931692909217909152613567565b50505050565b33600090815260086020526040812054815b8181101561110d5733600090815260086020526040902080546001600160a01b03861691908390811061346d5761346d613bfe565b60009182526020909120600160089092020101546001600160a01b0316141561349a575060019392505050565b806134a481613ba1565b915050613438565b6040516001600160a01b0383166024820152604481018290526134dc90849063a9059cbb60e01b906064016133e9565b505050565b33600090815260076020526040812054815b8181101561110d5733600090815260076020526040902080546001600160a01b03861691908390811061352857613528613bfe565b60009182526020909120600160089092020101546001600160a01b03161415613555575060019392505050565b8061355f81613ba1565b9150506134f3565b60006135bc826040518060400160405280602081526020017f5361666545524332303a206c6f772d6c6576656c2063616c6c206661696c6564815250856001600160a01b031661363c9092919063ffffffff16565b90508051600014806135dd5750808060200190518101906135dd919061385e565b6134dc5760405162461bcd60e51b815260206004820152602a60248201527f5361666545524332303a204552433230206f7065726174696f6e20646964206e6044820152691bdd081cdd58d8d9595960b21b606482015260840161050f565b60606125dd848460008585600080866001600160a01b031685876040516136639190613980565b60006040518083038185875af1925050503d80600081146136a0576040519150601f19603f3d011682016040523d82523d6000602084013e6136a5565b606091505b5091509150612972878383876060831561371d578251613716576001600160a01b0385163b6137165760405162461bcd60e51b815260206004820152601d60248201527f416464726573733a2063616c6c20746f206e6f6e2d636f6e7472616374000000604482015260640161050f565b50816125dd565b6125dd83838151156137325781518083602001fd5b8060405162461bcd60e51b815260040161050f9190613af2565b80356001600160a01b038116811461376357600080fd5b919050565b60006020828403121561377a57600080fd5b6137838261374c565b9392505050565b6000806040838503121561379d57600080fd5b6137a68361374c565b91506137b46020840161374c565b90509250929050565b6000806000606084860312156137d257600080fd5b6137db8461374c565b92506137e96020850161374c565b9150604084013590509250925092565b6000806040838503121561380c57600080fd5b6138158361374c565b915060208301356002811061382957600080fd5b809150509250929050565b6000806040838503121561384757600080fd5b6138508361374c565b946020939093013593505050565b60006020828403121561387057600080fd5b8151801515811461378357600080fd5b60006020828403121561389257600080fd5b815167ffffffffffffffff808211156138aa57600080fd5b818401915084601f8301126138be57600080fd5b8151818111156138d0576138d0613c14565b604051601f8201601f19908116603f011681019083821181831017156138f8576138f8613c14565b8160405282815287602084870101111561391157600080fd5b612972836020830160208801613b75565b60006020828403121561393457600080fd5b5035919050565b60006020828403121561394d57600080fd5b5051919050565b6000815180845261396c816020860160208601613b75565b601f01601f19169290920160200192915050565b60008251613992818460208701613b75565b9190910192915050565b6001600160a01b038a168152881515602082015287151560408201528615156060820152851515608082015261012060a082018190526000906139e183820188613954565b60c0840196909652505060e0810192909252610100909101529695505050505050565b602080825282518282018190526000919060409081850190868401855b82811015613a5957815180516001600160a01b0316855286810151878601528501518585015260609093019290850190600101613a21565b5091979650505050505050565b602080825282518282018190526000919060409081850190868401855b82811015613a5957815180516001600160a01b0390811686528782015116878601528581015186860152606080820151908601526080808201519086015260a0808201519086015260c0808201519086015260e090810151908501526101009093019290850190600101613a83565b6020815260006137836020830184613954565b60008219821115613b1857613b18613bbc565b500190565b600082613b3a57634e487b7160e01b600052601260045260246000fd5b500490565b6000816000190483118215151615613b5957613b59613bbc565b500290565b600082821015613b7057613b70613bbc565b500390565b60005b83811015613b90578181015183820152602001613b78565b838111156134205750506000910152565b6000600019821415613bb557613bb5613bbc565b5060010190565b634e487b7160e01b600052601160045260246000fd5b634e487b7160e01b600052602160045260246000fd5b634e487b7160e01b600052603160045260246000fd5b634e487b7160e01b600052603260045260246000fd5b634e487b7160e01b600052604160045260246000fdfea26469706673582212209a00237770abe95a3c88beb41049ba0431c35075687bb19d6826164bb0c91ccf64736f6c63430008060033",
  "linkReferences": {},
  "deployedLinkReferences": {}
}