{
  "_format": "hh-sol-artifact-1",
  "contractName": "LendingHelper",
  "sourceName": "contracts/LendingHelper.sol",
  "abi": [
    {
      "inputs": [
        {
          "internalType": "address",
          "name": "_addressToTokenMap",
          "type": "address"
        },
        {
          "internalType": "address",
          "name": "_lendingConfig",
          "type": "address"
        }
      ],
      "stateMutability": "nonpayable",
      "type": "constructor"
    },
    {
      "inputs": [
        {
          "internalType": "address",
          "name": "_token",
          "type": "address"
        },
        {
          "internalType": "uint256",
          "name": "_amount",
          "type": "uint256"
        }
      ],
      "name": "getAmountInUSD",
      "outputs": [
        {
          "internalType": "uint256",
          "name": "",
          "type": "uint256"
        }
      ],
      "stateMutability": "view",
      "type": "function"
    },
    {
      "inputs": [
        {
          "internalType": "address",
          "name": "_tokenAddress",
          "type": "address"
        }
      ],
      "name": "getCurrentTokenPrice",
      "outputs": [
        {
          "internalType": "uint256",
          "name": "",
          "type": "uint256"
        }
      ],
      "stateMutability": "view",
      "type": "function"
    },
    {
      "inputs": [
        {
          "internalType": "string",
          "name": "symbol",
          "type": "string"
        }
      ],
      "name": "getKeccackHash",
      "outputs": [
        {
          "internalType": "bytes32",
          "name": "",
          "type": "bytes32"
        }
      ],
      "stateMutability": "pure",
      "type": "function"
    },
    {
      "inputs": [
        {
          "internalType": "address",
          "name": "_address",
          "type": "address"
        },
        {
          "internalType": "address",
          "name": "_token",
          "type": "address"
        }
      ],
      "name": "getTokenBalance",
      "outputs": [
        {
          "internalType": "uint256",
          "name": "",
          "type": "uint256"
        }
      ],
      "stateMutability": "view",
      "type": "function"
    },
    {
      "inputs": [
        {
          "internalType": "address",
          "name": "_token",
          "type": "address"
        },
        {
          "internalType": "uint256",
          "name": "_usdAmount",
          "type": "uint256"
        }
      ],
      "name": "getTokensPerUSDAmount",
      "outputs": [
        {
          "internalType": "uint256",
          "name": "",
          "type": "uint256"
        }
      ],
      "stateMutability": "view",
      "type": "function"
    },
    {
      "inputs": [
        {
          "internalType": "uint256",
          "name": "x",
          "type": "uint256"
        },
        {
          "internalType": "uint256",
          "name": "y",
          "type": "uint256"
        }
      ],
      "name": "max",
      "outputs": [
        {
          "internalType": "uint256",
          "name": "",
          "type": "uint256"
        }
      ],
      "stateMutability": "pure",
      "type": "function"
    },
    {
      "inputs": [
        {
          "internalType": "uint256",
          "name": "x",
          "type": "uint256"
        },
        {
          "internalType": "uint256",
          "name": "y",
          "type": "uint256"
        }
      ],
      "name": "min",
      "outputs": [
        {
          "internalType": "uint256",
          "name": "",
          "type": "uint256"
        }
      ],
      "stateMutability": "pure",
      "type": "function"
    },
    {
      "inputs": [
        {
          "internalType": "uint256",
          "name": "startTimeStamp",
          "type": "uint256"
        },
        {
          "internalType": "uint256",
          "name": "totalTokenSupply",
          "type": "uint256"
        }
      ],
      "name": "rewardPerToken",
      "outputs": [
        {
          "internalType": "uint256",
          "name": "",
          "type": "uint256"
        }
      ],
      "stateMutability": "view",
      "type": "function"
    }
  ],
  "bytecode": "0x608060405234801561001057600080fd5b506040516108ca3803806108ca83398101604081905261002f9161007c565b600080546001600160a01b039384166001600160a01b031991821617909155600180549290931691161790556100af565b80516001600160a01b038116811461007757600080fd5b919050565b6000806040838503121561008f57600080fd5b61009883610060565b91506100a660208401610060565b90509250929050565b61080c806100be6000396000f3fe608060405234801561001057600080fd5b50600436106100885760003560e01c80637ae2b5c71161005b5780637ae2b5c7146100f15780639390f68014610104578063c489744b14610117578063d93412f41461012a57600080fd5b806309f72da31461008d5780630c95c2ce146100b257806325d07a95146100cb5780636d5433e6146100de575b600080fd5b6100a061009b36600461052f565b61013d565b60405190815260200160405180910390f35b6100a06100c03660046105a7565b805160209091012090565b6100a06100d936600461057d565b61034f565b6100a06100ec3660046106d7565b610381565b6100a06100ff3660046106d7565b61039a565b6100a061011236600461057d565b6103aa565b6100a061012536600461054a565b6103bf565b6100a06101383660046106d7565b61043c565b600080546040516364d9729160e11b81526001600160a01b03848116600483015283926101c49291169063c9b2e5229060240160006040518083038186803b15801561018857600080fd5b505afa15801561019c573d6000803e3d6000fd5b505050506040513d6000823e601f3d908101601f191682016040526100c09190810190610627565b60408051808201909152600381526208aa8960eb1b60209091015290507faaaebeba3810b1e6b70781f14b2d72c1cb89c0b2b320c43bb67ff79f562f5ff481141561021357506109e692915050565b60408051808201909152600381526244414960e81b6020909101527fa5e92f3efb6826155f1f728e162af9d7cda33a574a1153b58f03ea01cc37e56881141561025f5750600192915050565b6040805180820190915260048152635553444360e01b6020909101527fd6aca1be9729c13d677335161321649cccae6a591554772516700f986f942eaa8114156102ac5750600192915050565b6040805180820190915260048152631554d11560e21b6020909101527f8b1a1d9c2b109e527c9134b25b1a1833b16b6594f92daa9f6d9b7a6024bce9d08114156102f95750600192915050565b6040805180820190915260048152637742544360e01b6020909101527f0bb9c1788aace1754eae522f845084d89f0a65f87bfb0a6baa58445b9f7ff4de8114156103465750600192915050565b50600192915050565b600080610364670de0b6b3a764000084610752565b61036d8561013d565b6103779190610774565b9150505b92915050565b6000818310156103915781610393565b825b9392505050565b6000818311156103915781610393565b60006103b58361013d565b6103939083610752565b6040516370a0823160e01b81526001600160a01b038381166004830152600091908316906370a082319060240160206040518083038186803b15801561040457600080fd5b505afa158015610418573d6000803e3d6000fd5b505050506040513d601f19601f8201168201806040525081019061039391906106be565b60008161044b5750600061037b565b60006104578442610793565b90506000600160009054906101000a90046001600160a01b03166001600160a01b0316635b72a33a6040518163ffffffff1660e01b815260040160206040518083038186803b1580156104a957600080fd5b505afa1580156104bd573d6000803e3d6000fd5b505050506040513d601f19601f820116820180604052508101906104e191906106be565b9050836104ee8284610774565b61050090670de0b6b3a7640000610774565b61050a9190610752565b95945050505050565b80356001600160a01b038116811461052a57600080fd5b919050565b60006020828403121561054157600080fd5b61039382610513565b6000806040838503121561055d57600080fd5b61056683610513565b915061057460208401610513565b90509250929050565b6000806040838503121561059057600080fd5b61059983610513565b946020939093013593505050565b6000602082840312156105b957600080fd5b813567ffffffffffffffff8111156105d057600080fd5b8201601f810184136105e157600080fd5b80356105f46105ef8261072a565b6106f9565b81815285602083850101111561060957600080fd5b81602084016020830137600091810160200191909152949350505050565b6000602080838503121561063a57600080fd5b825167ffffffffffffffff81111561065157600080fd5b8301601f8101851361066257600080fd5b80516106706105ef8261072a565b818152868483850101111561068457600080fd5b60005b828110156106a2578381018501518282018601528401610687565b828111156106b35760008584840101525b509695505050505050565b6000602082840312156106d057600080fd5b5051919050565b600080604083850312156106ea57600080fd5b50508035926020909101359150565b604051601f8201601f1916810167ffffffffffffffff81118282101715610722576107226107c0565b604052919050565b600067ffffffffffffffff821115610744576107446107c0565b50601f01601f191660200190565b60008261076f57634e487b7160e01b600052601260045260246000fd5b500490565b600081600019048311821515161561078e5761078e6107aa565b500290565b6000828210156107a5576107a56107aa565b500390565b634e487b7160e01b600052601160045260246000fd5b634e487b7160e01b600052604160045260246000fdfea264697066735822122095763473606fa93cc442cbff39d0639e74e228640bfed933c2b43380118f30a564736f6c63430008060033",
  "linkReferences": {},
  "deployedLinkReferences": {}
}