{
  "_format": "hh-sol-artifact-1",
  "contractName": "LendingHelper",
  "sourceName": "contracts/LendingHelper.sol",
  "abi": [
    {
      "inputs": [
        {
          "internalType": "address",
          "name": "_addressToTokenMap",
          "type": "address"
        },
        {
          "internalType": "address",
          "name": "_lendingConfig",
          "type": "address"
        }
      ],
      "stateMutability": "nonpayable",
      "type": "constructor"
    },
    {
      "inputs": [
        {
          "internalType": "address",
          "name": "_token",
          "type": "address"
        },
        {
          "internalType": "uint256",
          "name": "_amount",
          "type": "uint256"
        }
      ],
      "name": "getAmountInUSD",
      "outputs": [
        {
          "internalType": "uint256",
          "name": "",
          "type": "uint256"
        }
      ],
      "stateMutability": "view",
      "type": "function"
    },
    {
      "inputs": [
        {
          "internalType": "address",
          "name": "_tokenAddress",
          "type": "address"
        }
      ],
      "name": "getCurrentTokenPrice",
      "outputs": [
        {
          "internalType": "uint256",
          "name": "",
          "type": "uint256"
        }
      ],
      "stateMutability": "view",
      "type": "function"
    },
    {
      "inputs": [
        {
          "internalType": "string",
          "name": "symbol",
          "type": "string"
        }
      ],
      "name": "getKeccackHash",
      "outputs": [
        {
          "internalType": "bytes32",
          "name": "",
          "type": "bytes32"
        }
      ],
      "stateMutability": "pure",
      "type": "function"
    },
    {
      "inputs": [
        {
          "internalType": "address",
          "name": "_address",
          "type": "address"
        },
        {
          "internalType": "address",
          "name": "_token",
          "type": "address"
        }
      ],
      "name": "getTokenBalance",
      "outputs": [
        {
          "internalType": "uint256",
          "name": "",
          "type": "uint256"
        }
      ],
      "stateMutability": "view",
      "type": "function"
    },
    {
      "inputs": [
        {
          "internalType": "address",
          "name": "_token",
          "type": "address"
        },
        {
          "internalType": "uint256",
          "name": "_usdAmount",
          "type": "uint256"
        }
      ],
      "name": "getTokensPerUSDAmount",
      "outputs": [
        {
          "internalType": "uint256",
          "name": "",
          "type": "uint256"
        }
      ],
      "stateMutability": "view",
      "type": "function"
    },
    {
      "inputs": [
        {
          "internalType": "uint256",
          "name": "x",
          "type": "uint256"
        },
        {
          "internalType": "uint256",
          "name": "y",
          "type": "uint256"
        }
      ],
      "name": "max",
      "outputs": [
        {
          "internalType": "uint256",
          "name": "",
          "type": "uint256"
        }
      ],
      "stateMutability": "pure",
      "type": "function"
    },
    {
      "inputs": [
        {
          "internalType": "uint256",
          "name": "x",
          "type": "uint256"
        },
        {
          "internalType": "uint256",
          "name": "y",
          "type": "uint256"
        }
      ],
      "name": "min",
      "outputs": [
        {
          "internalType": "uint256",
          "name": "",
          "type": "uint256"
        }
      ],
      "stateMutability": "pure",
      "type": "function"
    },
    {
      "inputs": [
        {
          "internalType": "uint256",
          "name": "startTimeStamp",
          "type": "uint256"
        },
        {
          "internalType": "uint256",
          "name": "totalTokenSupply",
          "type": "uint256"
        }
      ],
      "name": "rewardPerToken",
      "outputs": [
        {
          "internalType": "uint256",
          "name": "",
          "type": "uint256"
        }
      ],
      "stateMutability": "view",
      "type": "function"
    }
  ],
  "bytecode": "0x608060405234801561001057600080fd5b50604051610a8f380380610a8f83398101604081905261002f9161007c565b600080546001600160a01b039384166001600160a01b031991821617909155600180549290931691161790556100af565b80516001600160a01b038116811461007757600080fd5b919050565b6000806040838503121561008f57600080fd5b61009883610060565b91506100a660208401610060565b90509250929050565b6109d1806100be6000396000f3fe608060405234801561001057600080fd5b50600436106100885760003560e01c80637ae2b5c71161005b5780637ae2b5c7146100f15780639390f68014610104578063c489744b14610117578063d93412f41461012a57600080fd5b806309f72da31461008d5780630c95c2ce146100b257806325d07a95146100cb5780636d5433e6146100de575b600080fd5b6100a061009b366004610651565b61013d565b60405190815260200160405180910390f35b6100a06100c03660046106dd565b805160209091012090565b6100a06100d936600461075d565b610490565b6100a06100ec366004610789565b6104c2565b6100a06100ff366004610789565b6104db565b6100a061011236600461075d565b6104eb565b6100a06101253660046107ab565b610500565b6100a0610138366004610789565b61056e565b6000805460405163281d6ea960e01b81526001600160a01b0384811660048301528392169063281d6ea990602401602060405180830381865afa158015610188573d6000803e3d6000fd5b505050506040513d601f19601f820116820180604052508101906101ac91906107e4565b90506000816001600160a01b031663feaf968c6040518163ffffffff1660e01b815260040160a060405180830381865afa1580156101ee573d6000803e3d6000fd5b505050506040513d601f19601f820116820180604052508101906102129190610820565b5050509150506000826001600160a01b031663313ce5676040518163ffffffff1660e01b8152600401602060405180830381865afa158015610258573d6000803e3d6000fd5b505050506040513d601f19601f8201168201806040525081019061027c9190610870565b600080546040516364d9729160e11b81526001600160a01b03898116600483015293945091926102f79291169063c9b2e52290602401600060405180830381865afa1580156102cf573d6000803e3d6000fd5b505050506040513d6000823e601f3d908101601f191682016040526100c09190810190610893565b60408051808201909152600381526208aa8960eb1b60209091015290507faaaebeba3810b1e6b70781f14b2d72c1cb89c0b2b320c43bb67ff79f562f5ff4810361034857506109e695945050505050565b60408051808201909152600381526244414960e81b6020909101527fa5e92f3efb6826155f1f728e162af9d7cda33a574a1153b58f03ea01cc37e56881036103965750600195945050505050565b6040805180820190915260048152635553444360e01b6020909101527fd6aca1be9729c13d677335161321649cccae6a591554772516700f986f942eaa81036103e55750600195945050505050565b6040805180820190915260048152631554d11560e21b6020909101527f8b1a1d9c2b109e527c9134b25b1a1833b16b6594f92daa9f6d9b7a6024bce9d081036104345750600195945050505050565b60408051808201909152600381526242544360e81b6020909101527fe98e2830be1a7e4156d656a7505e65d08c67660dc618072422e9c78053c261e9810361048457506201770095945050505050565b50600195945050505050565b6000806104a5670de0b6b3a764000084610936565b6104ae8561013d565b6104b89190610958565b9150505b92915050565b6000818310156104d257816104d4565b825b9392505050565b6000818311156104d257816104d4565b60006104f68361013d565b6104d49083610936565b6040516370a0823160e01b81526001600160a01b038381166004830152600091908316906370a0823190602401602060405180830381865afa15801561054a573d6000803e3d6000fd5b505050506040513d601f19601f820116820180604052508101906104d4919061096f565b600081600003610580575060006104bc565b600061058c8442610988565b90506000600160009054906101000a90046001600160a01b03166001600160a01b0316635b72a33a6040518163ffffffff1660e01b8152600401602060405180830381865afa1580156105e3573d6000803e3d6000fd5b505050506040513d601f19601f82011682018060405250810190610607919061096f565b9050836106148284610958565b61062690670de0b6b3a7640000610958565b6106309190610936565b95945050505050565b6001600160a01b038116811461064e57600080fd5b50565b60006020828403121561066357600080fd5b81356104d481610639565b634e487b7160e01b600052604160045260246000fd5b604051601f8201601f1916810167ffffffffffffffff811182821017156106ad576106ad61066e565b604052919050565b600067ffffffffffffffff8211156106cf576106cf61066e565b50601f01601f191660200190565b6000602082840312156106ef57600080fd5b813567ffffffffffffffff81111561070657600080fd5b8201601f8101841361071757600080fd5b803561072a610725826106b5565b610684565b81815285602083850101111561073f57600080fd5b81602084016020830137600091810160200191909152949350505050565b6000806040838503121561077057600080fd5b823561077b81610639565b946020939093013593505050565b6000806040838503121561079c57600080fd5b50508035926020909101359150565b600080604083850312156107be57600080fd5b82356107c981610639565b915060208301356107d981610639565b809150509250929050565b6000602082840312156107f657600080fd5b81516104d481610639565b805169ffffffffffffffffffff8116811461081b57600080fd5b919050565b600080600080600060a0868803121561083857600080fd5b61084186610801565b945060208601519350604086015192506060860151915061086460808701610801565b90509295509295909350565b60006020828403121561088257600080fd5b815160ff811681146104d457600080fd5b600060208083850312156108a657600080fd5b825167ffffffffffffffff8111156108bd57600080fd5b8301601f810185136108ce57600080fd5b80516108dc610725826106b5565b81815286848385010111156108f057600080fd5b60005b8281101561090e5783810185015182820186015284016108f3565b50600091810190930152509392505050565b634e487b7160e01b600052601160045260246000fd5b60008261095357634e487b7160e01b600052601260045260246000fd5b500490565b80820281158282048414176104bc576104bc610920565b60006020828403121561098157600080fd5b5051919050565b818103818111156104bc576104bc61092056fea264697066735822122005e5c1953e144e64609f63f9f65c8ce263d8f17456079a8977b69e98055b18d864736f6c63430008140033",
  "linkReferences": {},
  "deployedLinkReferences": {}
}