{
  "_format": "hh-sol-artifact-1",
  "contractName": "LendingPool",
  "sourceName": "contracts/LendingPool.sol",
  "abi": [
    {
      "inputs": [
        {
          "internalType": "address",
          "name": "_addressToTokenMap",
          "type": "address"
        },
        {
          "internalType": "address",
          "name": "_lendingConfig",
          "type": "address"
        },
        {
          "internalType": "address",
          "name": "_lendingHelper",
          "type": "address"
        },
        {
          "internalType": "address",
          "name": "_feewallet",
          "type": "address"
        }
      ],
      "stateMutability": "nonpayable",
      "type": "constructor"
    },
    {
      "inputs": [],
      "name": "ReentrancyGuardReentrantCall",
      "type": "error"
    },
    {
      "inputs": [
        {
          "internalType": "address",
          "name": "token",
          "type": "address"
        }
      ],
      "name": "SafeERC20FailedOperation",
      "type": "error"
    },
    {
      "anonymous": false,
      "inputs": [
        {
          "indexed": true,
          "internalType": "address",
          "name": "borrower",
          "type": "address"
        },
        {
          "indexed": true,
          "internalType": "address",
          "name": "_token",
          "type": "address"
        },
        {
          "indexed": true,
          "internalType": "uint256",
          "name": "_amount",
          "type": "uint256"
        }
      ],
      "name": "Borrow",
      "type": "event"
    },
    {
      "anonymous": false,
      "inputs": [
        {
          "indexed": true,
          "internalType": "address",
          "name": "lender",
          "type": "address"
        },
        {
          "indexed": true,
          "internalType": "address",
          "name": "_token",
          "type": "address"
        },
        {
          "indexed": true,
          "internalType": "uint256",
          "name": "_amount",
          "type": "uint256"
        }
      ],
      "name": "Lend",
      "type": "event"
    },
    {
      "anonymous": false,
      "inputs": [
        {
          "indexed": true,
          "internalType": "address",
          "name": "borrower",
          "type": "address"
        },
        {
          "indexed": true,
          "internalType": "address",
          "name": "_token",
          "type": "address"
        },
        {
          "indexed": true,
          "internalType": "uint256",
          "name": "_amount",
          "type": "uint256"
        }
      ],
      "name": "Repay",
      "type": "event"
    },
    {
      "anonymous": false,
      "inputs": [
        {
          "indexed": false,
          "internalType": "address",
          "name": "lender",
          "type": "address"
        },
        {
          "indexed": false,
          "internalType": "address",
          "name": "_token",
          "type": "address"
        },
        {
          "indexed": false,
          "internalType": "uint256",
          "name": "_amount",
          "type": "uint256"
        }
      ],
      "name": "TransferAsset",
      "type": "event"
    },
    {
      "anonymous": false,
      "inputs": [
        {
          "indexed": true,
          "internalType": "address",
          "name": "lender",
          "type": "address"
        },
        {
          "indexed": true,
          "internalType": "address",
          "name": "_token",
          "type": "address"
        },
        {
          "indexed": true,
          "internalType": "uint256",
          "name": "_amount",
          "type": "uint256"
        }
      ],
      "name": "Withdraw",
      "type": "event"
    },
    {
      "inputs": [],
      "name": "PRICISSION",
      "outputs": [
        {
          "internalType": "uint256",
          "name": "",
          "type": "uint256"
        }
      ],
      "stateMutability": "view",
      "type": "function"
    },
    {
      "inputs": [
        {
          "internalType": "address",
          "name": "_token",
          "type": "address"
        },
        {
          "internalType": "uint256",
          "name": "_amount",
          "type": "uint256"
        }
      ],
      "name": "borrow",
      "outputs": [
        {
          "internalType": "bool",
          "name": "",
          "type": "bool"
        }
      ],
      "stateMutability": "nonpayable",
      "type": "function"
    },
    {
      "inputs": [
        {
          "internalType": "address",
          "name": "",
          "type": "address"
        },
        {
          "internalType": "uint256",
          "name": "",
          "type": "uint256"
        }
      ],
      "name": "borrowerAssets",
      "outputs": [
        {
          "internalType": "address",
          "name": "user",
          "type": "address"
        },
        {
          "internalType": "address",
          "name": "token",
          "type": "address"
        },
        {
          "internalType": "uint256",
          "name": "lentQty",
          "type": "uint256"
        },
        {
          "internalType": "uint256",
          "name": "borrowQty",
          "type": "uint256"
        },
        {
          "internalType": "uint256",
          "name": "lentApy",
          "type": "uint256"
        },
        {
          "internalType": "uint256",
          "name": "borrowApy",
          "type": "uint256"
        },
        {
          "internalType": "uint256",
          "name": "lendStartTimeStamp",
          "type": "uint256"
        },
        {
          "internalType": "uint256",
          "name": "borrowStartTimeStamp",
          "type": "uint256"
        }
      ],
      "stateMutability": "view",
      "type": "function"
    },
    {
      "inputs": [
        {
          "internalType": "address",
          "name": "_borrower",
          "type": "address"
        }
      ],
      "name": "getAssetsToBorrow",
      "outputs": [
        {
          "components": [
            {
              "internalType": "address",
              "name": "token",
              "type": "address"
            },
            {
              "internalType": "uint256",
              "name": "borrowQty",
              "type": "uint256"
            },
            {
              "internalType": "uint256",
              "name": "borrowApy",
              "type": "uint256"
            }
          ],
          "internalType": "struct LendingPool.BorrowAsset[]",
          "name": "",
          "type": "tuple[]"
        }
      ],
      "stateMutability": "view",
      "type": "function"
    },
    {
      "inputs": [
        {
          "internalType": "address",
          "name": "_borrower",
          "type": "address"
        },
        {
          "internalType": "address",
          "name": "_token",
          "type": "address"
        }
      ],
      "name": "getBorrowerAssetQty",
      "outputs": [
        {
          "internalType": "uint256",
          "name": "",
          "type": "uint256"
        }
      ],
      "stateMutability": "view",
      "type": "function"
    },
    {
      "inputs": [
        {
          "internalType": "address",
          "name": "_borrower",
          "type": "address"
        }
      ],
      "name": "getBorrowerAssets",
      "outputs": [
        {
          "components": [
            {
              "internalType": "address",
              "name": "user",
              "type": "address"
            },
            {
              "internalType": "address",
              "name": "token",
              "type": "address"
            },
            {
              "internalType": "uint256",
              "name": "lentQty",
              "type": "uint256"
            },
            {
              "internalType": "uint256",
              "name": "borrowQty",
              "type": "uint256"
            },
            {
              "internalType": "uint256",
              "name": "lentApy",
              "type": "uint256"
            },
            {
              "internalType": "uint256",
              "name": "borrowApy",
              "type": "uint256"
            },
            {
              "internalType": "uint256",
              "name": "lendStartTimeStamp",
              "type": "uint256"
            },
            {
              "internalType": "uint256",
              "name": "borrowStartTimeStamp",
              "type": "uint256"
            }
          ],
          "internalType": "struct LendingPool.UserAsset[]",
          "name": "",
          "type": "tuple[]"
        }
      ],
      "stateMutability": "view",
      "type": "function"
    },
    {
      "inputs": [
        {
          "internalType": "address",
          "name": "_lender",
          "type": "address"
        },
        {
          "internalType": "address",
          "name": "_token",
          "type": "address"
        }
      ],
      "name": "getLenderAssetQty",
      "outputs": [
        {
          "internalType": "uint256",
          "name": "",
          "type": "uint256"
        }
      ],
      "stateMutability": "view",
      "type": "function"
    },
    {
      "inputs": [
        {
          "internalType": "address",
          "name": "_lender",
          "type": "address"
        }
      ],
      "name": "getLenderAssets",
      "outputs": [
        {
          "components": [
            {
              "internalType": "address",
              "name": "user",
              "type": "address"
            },
            {
              "internalType": "address",
              "name": "token",
              "type": "address"
            },
            {
              "internalType": "uint256",
              "name": "lentQty",
              "type": "uint256"
            },
            {
              "internalType": "uint256",
              "name": "borrowQty",
              "type": "uint256"
            },
            {
              "internalType": "uint256",
              "name": "lentApy",
              "type": "uint256"
            },
            {
              "internalType": "uint256",
              "name": "borrowApy",
              "type": "uint256"
            },
            {
              "internalType": "uint256",
              "name": "lendStartTimeStamp",
              "type": "uint256"
            },
            {
              "internalType": "uint256",
              "name": "borrowStartTimeStamp",
              "type": "uint256"
            }
          ],
          "internalType": "struct LendingPool.UserAsset[]",
          "name": "",
          "type": "tuple[]"
        }
      ],
      "stateMutability": "view",
      "type": "function"
    },
    {
      "inputs": [
        {
          "internalType": "address",
          "name": "_token",
          "type": "address"
        }
      ],
      "name": "getTotalTokenSupplyInReserves",
      "outputs": [
        {
          "internalType": "uint256",
          "name": "",
          "type": "uint256"
        }
      ],
      "stateMutability": "view",
      "type": "function"
    },
    {
      "inputs": [
        {
          "internalType": "address",
          "name": "_user",
          "type": "address"
        },
        {
          "internalType": "enum LendingPool.TxMode",
          "name": "_txmode",
          "type": "uint8"
        }
      ],
      "name": "getUserTotalAvailableBalanceInUSD",
      "outputs": [
        {
          "internalType": "uint256",
          "name": "",
          "type": "uint256"
        }
      ],
      "stateMutability": "view",
      "type": "function"
    },
    {
      "inputs": [
        {
          "internalType": "address",
          "name": "_borrower",
          "type": "address"
        },
        {
          "internalType": "address",
          "name": "_token",
          "type": "address"
        },
        {
          "internalType": "uint256",
          "name": "borrowStartTimeStamp",
          "type": "uint256"
        }
      ],
      "name": "interestAccrued",
      "outputs": [
        {
          "internalType": "uint256",
          "name": "",
          "type": "uint256"
        }
      ],
      "stateMutability": "view",
      "type": "function"
    },
    {
      "inputs": [
        {
          "internalType": "address",
          "name": "_lender",
          "type": "address"
        },
        {
          "internalType": "address",
          "name": "_token",
          "type": "address"
        },
        {
          "internalType": "uint256",
          "name": "lendStartTimeStamp",
          "type": "uint256"
        }
      ],
      "name": "interestEarned",
      "outputs": [
        {
          "internalType": "uint256",
          "name": "",
          "type": "uint256"
        }
      ],
      "stateMutability": "view",
      "type": "function"
    },
    {
      "inputs": [
        {
          "internalType": "address",
          "name": "_borrower",
          "type": "address"
        },
        {
          "internalType": "address",
          "name": "_token",
          "type": "address"
        }
      ],
      "name": "isTokenBorrowed",
      "outputs": [
        {
          "internalType": "bool",
          "name": "",
          "type": "bool"
        }
      ],
      "stateMutability": "view",
      "type": "function"
    },
    {
      "inputs": [
        {
          "internalType": "address",
          "name": "_token",
          "type": "address"
        }
      ],
      "name": "isTokenInReserve",
      "outputs": [
        {
          "internalType": "bool",
          "name": "",
          "type": "bool"
        }
      ],
      "stateMutability": "view",
      "type": "function"
    },
    {
      "inputs": [
        {
          "internalType": "address",
          "name": "_token",
          "type": "address"
        },
        {
          "internalType": "uint256",
          "name": "_amount",
          "type": "uint256"
        }
      ],
      "name": "lend",
      "outputs": [],
      "stateMutability": "payable",
      "type": "function"
    },
    {
      "inputs": [
        {
          "internalType": "address",
          "name": "",
          "type": "address"
        },
        {
          "internalType": "uint256",
          "name": "",
          "type": "uint256"
        }
      ],
      "name": "lenderAssets",
      "outputs": [
        {
          "internalType": "address",
          "name": "user",
          "type": "address"
        },
        {
          "internalType": "address",
          "name": "token",
          "type": "address"
        },
        {
          "internalType": "uint256",
          "name": "lentQty",
          "type": "uint256"
        },
        {
          "internalType": "uint256",
          "name": "borrowQty",
          "type": "uint256"
        },
        {
          "internalType": "uint256",
          "name": "lentApy",
          "type": "uint256"
        },
        {
          "internalType": "uint256",
          "name": "borrowApy",
          "type": "uint256"
        },
        {
          "internalType": "uint256",
          "name": "lendStartTimeStamp",
          "type": "uint256"
        },
        {
          "internalType": "uint256",
          "name": "borrowStartTimeStamp",
          "type": "uint256"
        }
      ],
      "stateMutability": "view",
      "type": "function"
    },
    {
      "inputs": [
        {
          "internalType": "address",
          "name": "_token",
          "type": "address"
        },
        {
          "internalType": "uint256",
          "name": "_amount",
          "type": "uint256"
        }
      ],
      "name": "repay",
      "outputs": [],
      "stateMutability": "nonpayable",
      "type": "function"
    },
    {
      "inputs": [
        {
          "internalType": "uint256",
          "name": "",
          "type": "uint256"
        }
      ],
      "name": "reserveAssets",
      "outputs": [
        {
          "internalType": "address",
          "name": "",
          "type": "address"
        }
      ],
      "stateMutability": "view",
      "type": "function"
    },
    {
      "inputs": [
        {
          "internalType": "address",
          "name": "",
          "type": "address"
        }
      ],
      "name": "reserves",
      "outputs": [
        {
          "internalType": "uint256",
          "name": "",
          "type": "uint256"
        }
      ],
      "stateMutability": "view",
      "type": "function"
    },
    {
      "inputs": [
        {
          "internalType": "address",
          "name": "_token",
          "type": "address"
        },
        {
          "internalType": "uint256",
          "name": "_amount",
          "type": "uint256"
        }
      ],
      "name": "withdraw",
      "outputs": [
        {
          "internalType": "bool",
          "name": "",
          "type": "bool"
        }
      ],
      "stateMutability": "nonpayable",
      "type": "function"
    },
    {
      "stateMutability": "payable",
      "type": "receive"
    }
  ],
  "bytecode": "0x60806040523480156200001157600080fd5b5060405162003b1a38038062003b1a8339810160408190526200003491620000aa565b6001600081905580546001600160a01b039586166001600160a01b031991821617909155600280549486169482169490941790935560038054928516928416929092179091556004805491909316911617905562000107565b80516001600160a01b0381168114620000a557600080fd5b919050565b60008060008060808587031215620000c157600080fd5b620000cc856200008d565b9350620000dc602086016200008d565b9250620000ec604086016200008d565b9150620000fc606086016200008d565b905092959194509250565b613a0380620001176000396000f3fe6080604052600436106101235760003560e01c8063a63507a9116100a0578063ddd44c9611610064578063ddd44c96146103a2578063e59b785d146103c2578063e94b8590146103e2578063f3fef3a314610402578063f4234c8f1461042257600080fd5b8063a63507a9146102ff578063b36d4ec714610315578063d0278dcd14610335578063d219ad8f14610355578063d66bd5241461037557600080fd5b806324310598116100e7578063243105981461024657806337973e5f146102665780634b8a35291461029e57806388c29474146102be578063a2fb342d146102ec57600080fd5b80630792d9e91461012f5780630f11c9a6146101645780631fe67ce61461019157806320d6cc5d146101be57806322867d781461022457600080fd5b3661012a57005b600080fd5b34801561013b57600080fd5b5061014f61014a366004613566565b610458565b60405190151581526020015b60405180910390f35b34801561017057600080fd5b5061018461017f366004613599565b6104f6565b60405161015b91906135bb565b34801561019d57600080fd5b506101b16101ac366004613599565b610874565b60405161015b919061361d565b3480156101ca57600080fd5b506101de6101d93660046136a9565b610942565b604080516001600160a01b03998a168152989097166020890152958701949094526060860192909252608085015260a084015260c083015260e08201526101000161015b565b34801561023057600080fd5b5061024461023f3660046136a9565b6109b0565b005b34801561025257600080fd5b5061014f610261366004613599565b611098565b34801561027257600080fd5b506102866102813660046136d3565b611105565b6040516001600160a01b03909116815260200161015b565b3480156102aa57600080fd5b5061014f6102b93660046136a9565b61112f565b3480156102ca57600080fd5b506102de6102d9366004613566565b6118b8565b60405190815260200161015b565b6102446102fa3660046136a9565b611983565b34801561030b57600080fd5b506102de61271081565b34801561032157600080fd5b506101b1610330366004613599565b612378565b34801561034157600080fd5b506102de6103503660046136ec565b612438565b34801561036157600080fd5b506102de610370366004613728565b6124ef565b34801561038157600080fd5b506102de610390366004613599565b60056020526000908152604090205481565b3480156103ae57600080fd5b506102de6103bd366004613566565b612859565b3480156103ce57600080fd5b506101de6103dd3660046136a9565b612924565b3480156103ee57600080fd5b506102de6103fd3660046136ec565b612940565b34801561040e57600080fd5b5061014f61041d3660046136a9565b612a00565b34801561042e57600080fd5b506102de61043d366004613599565b6001600160a01b031660009081526005602052604090205490565b6001600160a01b038216600090815260086020526040812054815b818110156104e9576001600160a01b038581166000908152600860205260409020805491861691839081106104aa576104aa613763565b60009182526020909120600160089092020101546001600160a01b0316036104d7576001925050506104f0565b806104e18161378f565b915050610473565b5060009150505b92915050565b60606001600160a01b0382166105455760405162461bcd60e51b815260206004820152600f60248201526e496e76616c6964206164647265737360881b60448201526064015b60405180910390fd5b60006105528360006124ef565b60065490915060008167ffffffffffffffff811115610573576105736137a8565b6040519080825280602002602001820160405280156105d157816020015b6105be604051806060016040528060006001600160a01b0316815260200160008152602001600081525090565b8152602001906001900390816105915790505b5090506000805b83811015610869576000600682815481106105f5576105f5613763565b600091825260209091200154600254604051630dd10adb60e21b81526001600160a01b039283166004820181905293509116906337442b6c90602401602060405180830381865afa15801561064e573d6000803e3d6000fd5b505050506040513d601f19601f8201168201806040525081019061067291906137be565b156108565760035460405163012721ed60e71b81526001600160a01b038381166004830152602482018990526000921690637ae2b5c7908290639390f68090604401602060405180830381865afa1580156106d1573d6000803e3d6000fd5b505050506040513d601f19601f820116820180604052508101906106f591906137e0565b6001600160a01b03851660009081526005602052604090205461072190670de0b6b3a7640000906137f9565b6040516001600160e01b031960e085901b16815260048101929092526024820152604401602060405180830381865afa158015610762573d6000803e3d6000fd5b505050506040513d601f19601f8201168201806040525081019061078691906137e0565b90508015610854576040518060600160405280836001600160a01b03168152602001828152602001600260009054906101000a90046001600160a01b03166001600160a01b031663602839db6040518163ffffffff1660e01b8152600401602060405180830381865afa158015610801573d6000803e3d6000fd5b505050506040513d601f19601f8201168201806040525081019061082591906137e0565b81525085858151811061083a5761083a613763565b602002602001018190525083806108509061378f565b9450505b505b50806108618161378f565b9150506105d8565b509095945050505050565b6001600160a01b0381166000908152600860209081526040808320805482518185028101850190935280835260609492939192909184015b8282101561093757600084815260209081902060408051610100810182526008860290920180546001600160a01b039081168452600180830154909116848601526002820154928401929092526003810154606084015260048101546080840152600581015460a0840152600681015460c08401526007015460e083015290835290920191016108ac565b505050509050919050565b6008602052816000526040600020818154811061095e57600080fd5b6000918252602090912060089091020180546001820154600283015460038401546004850154600586015460068701546007909701546001600160a01b03968716995094909516965091949093919288565b6109b8613302565b3360008181526007602052604081205484915b81811015610ac757610a25848460076000886001600160a01b03166001600160a01b031681526020019081526020016000208481548110610a0e57610a0e613763565b906000526020600020906008020160060154612438565b6001600160a01b0385166000908152600760205260409020805483908110610a4f57610a4f613763565b90600052602060002090600802016002016000828254610a6f919061381b565b90915550506001600160a01b0384166000908152600760205260409020805442919083908110610aa157610aa1613763565b600091825260209091206006600890920201015580610abf8161378f565b9150506109cb565b503360008181526008602052604081205487915b81811015610bd757610b35848460086000886001600160a01b03166001600160a01b031681526020019081526020016000208481548110610b1e57610b1e613763565b906000526020600020906008020160070154612940565b6001600160a01b0385166000908152600860205260409020805483908110610b5f57610b5f613763565b90600052602060002090600802016003016000828254610b7f919061381b565b90915550506001600160a01b0384166000908152600860205260409020805442919083908110610bb157610bb1613763565b600091825260209091206007600890920201015580610bcf8161378f565b915050610adb565b5033610be3818a610458565b610c3b5760405162461bcd60e51b815260206004820152602360248201527f546f6b656e20776173206e6f7420626f72726f7765642c2043616e277420526560448201526270617960e81b606482015260840161053c565b610c45818a612859565b881115610caa5760405162461bcd60e51b815260206004820152602d60248201527f526570617920416d6f756e742073686f756c64206c657373207468616e20626f60448201526c1c9c9bddd95908185b5bdd5b9d609a1b606482015260840161053c565b610cb68982308b61332c565b6001600160a01b038916600090815260056020526040812080548a9290610cde90849061381b565b90915550506001600160a01b038116600090815260086020526040812054905b81811015611040576001600160a01b0383811660009081526008602052604090208054918d169183908110610d3557610d35613763565b60009182526020909120600160089092020101546001600160a01b031603610dec576001600160a01b038316600090815260086020526040902080548b919083908110610d8457610d84613763565b90600052602060002090600802016003016000828254610da4919061382e565b90915550506001600160a01b0383166000908152600860205260409020805442919083908110610dd657610dd6613763565b9060005260206000209060080201600701819055505b6001600160a01b0383166000908152600860205260409020805482908110610e1657610e16613763565b90600052602060002090600802016003015460000361102e576001600160a01b0383166000908152600860205260409020805482908110610e5957610e59613763565b6000918252602080832060089283020180546001600160a01b0319908116825560018083018054909216909155600282018590556003820185905560048201859055600582018590556006820185905560079091018490556001600160a01b0387168452919052604090912090610ed0908461382e565b81548110610ee057610ee0613763565b906000526020600020906008020160086000856001600160a01b03166001600160a01b031681526020019081526020016000208281548110610f2457610f24613763565b600091825260208083208454600893840290910180546001600160a01b03199081166001600160a01b0393841617825560018088015490830180549092169084161790556002808701549082015560038087015490820155600480870154908201556005808701549082015560068087015490820155600795860154950194909455928616825290915260409020805480610fc157610fc1613841565b60008281526020812060086000199093019283020180546001600160a01b03199081168255600182810180549092169091556002820183905560038201839055600482018390556005820183905560068201839055600790910191909155915561102b908361382e565b91505b806110388161378f565b915050610cfe565b50888a6001600160a01b0316836001600160a01b03167f05f2eeda0e08e4b437f487c8d7d29b14537d15e3488170dc3de5dbdf8dac468460405160405180910390a450505050505050506110946001600055565b5050565b600654600090815b818110156110fb57836001600160a01b0316600682815481106110c5576110c5613763565b6000918252602090912001546001600160a01b0316036110e9575060019392505050565b806110f38161378f565b9150506110a0565b5060009392505050565b6006818154811061111557600080fd5b6000918252602090912001546001600160a01b0316905081565b6000611139613302565b3360008181526007602052604081205485915b818110156112315761118f848460076000886001600160a01b03166001600160a01b031681526020019081526020016000208481548110610a0e57610a0e613763565b6001600160a01b03851660009081526007602052604090208054839081106111b9576111b9613763565b906000526020600020906008020160020160008282546111d9919061381b565b90915550506001600160a01b038416600090815260076020526040902080544291908390811061120b5761120b613763565b6000918252602090912060066008909202010155806112298161378f565b91505061114c565b503360008181526008602052604081205488915b8181101561132a57611288848460086000886001600160a01b03166001600160a01b031681526020019081526020016000208481548110610b1e57610b1e613763565b6001600160a01b03851660009081526008602052604090208054839081106112b2576112b2613763565b906000526020600020906008020160030160008282546112d2919061381b565b90915550506001600160a01b038416600090815260086020526040902080544291908390811061130457611304613763565b6000918252602090912060076008909202010155806113228161378f565b915050611245565b506003546040516325d07a9560e01b81526001600160a01b038b81166004830152602482018b905233926000929116906325d07a9590604401602060405180830381865afa158015611380573d6000803e3d6000fd5b505050506040513d601f19601f820116820180604052508101906113a491906137e0565b905060006113b38360006124ef565b9050808211156114055760405162461bcd60e51b815260206004820152601c60248201527f4e6f7420656e6f7567682062616c616e636520746f20626f72726f7700000000604482015260640161053c565b6001600160a01b038c166000908152600560205260409020548b11156114825760405162461bcd60e51b815260206004820152602c60248201527f4e6f7420656e6f7567682071747920696e20746865207265736572766520706f60448201526b6f6c20746f20626f72726f7760a01b606482015260840161053c565b6001600160a01b0383166114d05760405162461bcd60e51b81526020600482015260156024820152745472616e73666572204e6f7420506f737369626c6560581b604482015260640161053c565b6114d98c613399565b611641576000604051806101000160405280856001600160a01b031681526020018e6001600160a01b03168152602001600081526020018d815260200160008152602001600260009054906101000a90046001600160a01b03166001600160a01b031663602839db6040518163ffffffff1660e01b8152600401602060405180830381865afa158015611570573d6000803e3d6000fd5b505050506040513d601f19601f8201168201806040525081019061159491906137e0565b815260006020808301829052426040938401526001600160a01b03888116835260088083528484208054600180820183559186529484902087519590920290910180546001600160a01b0319908116958416959095178155928601519083018054909416911617909155908201516002820155606082015160038201556080820151600482015560a0820151600582015560c0820151600682015560e09091015160079091015550611827565b6001600160a01b038316600090815260086020526040812054905b81811015611824578d6001600160a01b031660086000876001600160a01b03166001600160a01b0316815260200190815260200160002082815481106116a4576116a4613763565b60009182526020909120600160089092020101546001600160a01b031603611812576001600160a01b038516600090815260086020526040902080548e9190839081106116f3576116f3613763565b90600052602060002090600802016003016000828254611713919061381b565b90915550506002546040805163602839db60e01b815290516001600160a01b039092169163602839db916004808201926020929091908290030181865afa158015611762573d6000803e3d6000fd5b505050506040513d601f19601f8201168201806040525081019061178691906137e0565b6001600160a01b03861660009081526008602052604090208054839081106117b0576117b0613763565b9060005260206000209060080201600501819055504260086000876001600160a01b03166001600160a01b0316815260200190815260200160002082815481106117fc576117fc613763565b9060005260206000209060080201600701819055505b8061181c8161378f565b91505061165c565b50505b6001600160a01b038c16600090815260056020526040812080548d929061184f90849061382e565b9091555061186090508c848d61341e565b8a8c6001600160a01b0316846001600160a01b03167f312a5e5e1079f5dda4e95dbbd0b908b291fd5b992ef22073643ab691572c5b5260405160405180910390a4600199505050505050505050506104f06001600055565b6001600160a01b038216600090815260076020526040812054815b818110156104e9576001600160a01b0385811660009081526007602052604090208054918616918390811061190a5761190a613763565b60009182526020909120600160089092020101546001600160a01b031603611971576001600160a01b038516600090815260076020526040902080548290811061195657611956613763565b906000526020600020906008020160020154925050506104f0565b8061197b8161378f565b9150506118d3565b61198b613302565b3360008181526007602052604081205484915b81811015611a83576119e1848460076000886001600160a01b03166001600160a01b031681526020019081526020016000208481548110610a0e57610a0e613763565b6001600160a01b0385166000908152600760205260409020805483908110611a0b57611a0b613763565b90600052602060002090600802016002016000828254611a2b919061381b565b90915550506001600160a01b0384166000908152600760205260409020805442919083908110611a5d57611a5d613763565b600091825260209091206006600890920201015580611a7b8161378f565b91505061199e565b50600154604051631ee144a160e31b81526001600160a01b038781166004830152339260009291169063f70a250890602401602060405180830381865afa158015611ad2573d6000803e3d6000fd5b505050506040513d601f19601f82011682018060405250810190611af691906137be565b611b01576000611b04565b60015b600154604051631ee144a160e31b81526001600160a01b038a811660048301529293506000929091169063f70a250890602401602060405180830381865afa158015611b54573d6000803e3d6000fd5b505050506040513d601f19601f82011682018060405250810190611b7891906137be565b611b83576001611b86565b60005b6001546040516364d9729160e11b81526001600160a01b038b811660048301529293506000929091169063c9b2e52290602401600060405180830381865afa158015611bd6573d6000803e3d6000fd5b505050506040513d6000823e601f3d908101601f19168201604052611bfe919081019061387b565b600254604051630944076f60e21b81526001600160a01b038c811660048301529293509116906325101dbc90602401602060405180830381865afa158015611c4a573d6000803e3d6000fd5b505050506040513d601f19601f82011682018060405250810190611c6e91906137be565b611e4d5760025460408051632e0f262560e01b815290516001600160a01b0390921691634c2fad06918c918691889160009160019189918991632e0f2625916004808201926020929091908290030181865afa158015611cd2573d6000803e3d6000fd5b505050506040513d601f19601f82011682018060405250810190611cf691906137e0565b600260009054906101000a90046001600160a01b03166001600160a01b0316631500c2ff6040518163ffffffff1660e01b8152600401602060405180830381865afa158015611d49573d6000803e3d6000fd5b505050506040513d601f19601f82011682018060405250810190611d6d91906137e0565b600260009054906101000a90046001600160a01b03166001600160a01b03166390a8ae9b6040518163ffffffff1660e01b8152600401602060405180830381865afa158015611dc0573d6000803e3d6000fd5b505050506040513d601f19601f82011682018060405250810190611de491906137e0565b6040518a63ffffffff1660e01b8152600401611e089998979695949392919061391d565b6020604051808303816000875af1158015611e27573d6000803e3d6000fd5b505050506040513d601f19601f82011682018060405250810190611e4b91906137be565b505b600154604051631ee144a160e31b81526001600160a01b038b811660048301529091169063f70a250890602401602060405180830381865afa158015611e97573d6000803e3d6000fd5b505050506040513d601f19601f82011682018060405250810190611ebb91906137be565b15611f4f57604051600090309034908381818185875af1925050503d8060008114611f02576040519150601f19603f3d011682016040523d82523d6000602084013e611f07565b606091505b5050905080611f495760405162461bcd60e51b815260206004820152600e60248201526d11195c1bdcda5d0819985a5b195960921b604482015260640161053c565b50611f5b565b611f5b8985308b61332c565b6001600160a01b038916600090815260056020526040812080548a9290611f8390849061381b565b90915550506001600160a01b038416600090815260076020526040902054611faa8a613454565b612110576000604051806101000160405280876001600160a01b031681526020018c6001600160a01b031681526020018b815260200160008152602001600260009054906101000a90046001600160a01b03166001600160a01b0316635b72a33a6040518163ffffffff1660e01b8152600401602060405180830381865afa15801561203a573d6000803e3d6000fd5b505050506040513d601f19601f8201168201806040525081019061205e91906137e0565b8152600060208083018290524260408085019190915260609384018390526001600160a01b03808c168452600780845282852080546001818101835591875295859020885160089097020180549684166001600160a01b031997881617815594880151908501805491909316951694909417905584015160028201559183015160038301556080830151600483015560a0830151600583015560c0830151600683015560e090920151910155506122cc565b60005b818110156122ca576001600160a01b0386811660009081526007602052604090208054918d16918390811061214a5761214a613763565b60009182526020909120600160089092020101546001600160a01b0316036122b8576001600160a01b038616600090815260076020526040902080548b91908390811061219957612199613763565b906000526020600020906008020160020160008282546121b9919061381b565b909155505060025460408051632db9519d60e11b815290516001600160a01b0390921691635b72a33a916004808201926020929091908290030181865afa158015612208573d6000803e3d6000fd5b505050506040513d601f19601f8201168201806040525081019061222c91906137e0565b6001600160a01b038716600090815260076020526040902080548390811061225657612256613763565b9060005260206000209060080201600401819055504260076000886001600160a01b03166001600160a01b0316815260200190815260200160002082815481106122a2576122a2613763565b9060005260206000209060080201600601819055505b806122c28161378f565b915050612113565b505b6122d58a611098565b61232557600680546001810182556000919091527ff652222313e28459528d920b65115c16c04f3efc82aaedc97be59f3f377c0d3f0180546001600160a01b0319166001600160a01b038c161790555b888a6001600160a01b0316866001600160a01b03167f11dd72a5d477527ee1cbe309212bb368745a98cf1dc3befcac7eef4988a957c260405160405180910390a450505050505050506110946001600055565b6001600160a01b038116600090815260076020908152604080832080548251818502810185019093528083526060949293919290918401821561093757600084815260209081902060408051610100810182526008860290920180546001600160a01b039081168452600180830154909116848601526002820154928401929092526003810154606084015260048101546080840152600581015460a0840152600681015460c08401526007015460e083015290835290920191016108ac565b6003546001600160a01b0383811660009081526005602052604080822054905163364d04bd60e21b81526004810186905260248101919091529092670de0b6b3a764000092169063d93412f490604401602060405180830381865afa1580156124a5573d6000803e3d6000fd5b505050506040513d601f19601f820116820180604052508101906124c991906137e0565b6124d386866118b8565b6124dd91906139a0565b6124e791906137f9565b949350505050565b6001600160a01b03821660009081526007602052604081205481908190815b81811015612649576003546001600160a01b038881166000908152600760205260409020805491909216916325d07a95918490811061254f5761254f613763565b906000526020600020906008020160010160009054906101000a90046001600160a01b0316600760008b6001600160a01b03166001600160a01b0316815260200190815260200160002084815481106125aa576125aa613763565b60009182526020909120600260089092020101546040516001600160e01b031960e085901b1681526001600160a01b0390921660048301526024820152604401602060405180830381865afa158015612607573d6000803e3d6000fd5b505050506040513d601f19601f8201168201806040525081019061262b91906137e0565b612635908561381b565b9350806126418161378f565b91505061250e565b506001600160a01b038616600090815260086020526040812054905b81811015612787576003546001600160a01b038981166000908152600860205260409020805491909216916325d07a9591849081106126a6576126a6613763565b60009182526020808320600892830201600101546001600160a01b038e811685529290915260409092208054919092169190859081106126e8576126e8613763565b60009182526020909120600360089092020101546040516001600160e01b031960e085901b1681526001600160a01b0390921660048301526024820152604401602060405180830381865afa158015612745573d6000803e3d6000fd5b505050506040513d601f19601f8201168201806040525081019061276991906137e0565b612773908561381b565b93508061277f8161378f565b915050612665565b50600086600181111561279c5761279c6139b7565b0361284457826064600260009054906101000a90046001600160a01b03166001600160a01b0316631500c2ff6040518163ffffffff1660e01b8152600401602060405180830381865afa1580156127f7573d6000803e3d6000fd5b505050506040513d601f19601f8201168201806040525081019061281b91906137e0565b61282590876139a0565b61282f91906137f9565b612839919061382e565b9450505050506104f0565b61284e838561382e565b979650505050505050565b6001600160a01b038216600090815260086020526040812054815b818110156104e9576001600160a01b038581166000908152600860205260409020805491861691839081106128ab576128ab613763565b60009182526020909120600160089092020101546001600160a01b031603612912576001600160a01b03851660009081526008602052604090208054829081106128f7576128f7613763565b906000526020600020906008020160030154925050506104f0565b8061291c8161378f565b915050612874565b6007602052816000526040600020818154811061095e57600080fd5b60008061294d8585612859565b6003546001600160a01b0386811660009081526005602052604080822054905163364d04bd60e21b81526004810189905260248101919091529394509291169063d93412f490604401602060405180830381865afa1580156129b3573d6000803e3d6000fd5b505050506040513d601f19601f820116820180604052508101906129d791906137e0565b9050670de0b6b3a76400006129ec82846139a0565b6129f691906137f9565b9695505050505050565b6000612a0a613302565b3360008181526007602052604081205485915b81811015612b0257612a60848460076000886001600160a01b03166001600160a01b031681526020019081526020016000208481548110610a0e57610a0e613763565b6001600160a01b0385166000908152600760205260409020805483908110612a8a57612a8a613763565b90600052602060002090600802016002016000828254612aaa919061381b565b90915550506001600160a01b0384166000908152600760205260409020805442919083908110612adc57612adc613763565b600091825260209091206006600890920201015580612afa8161378f565b915050612a1d565b5033612b0d87613454565b612b4b5760405162461bcd60e51b815260206004820152600f60248201526e2737ba103a37b5b2b71037bbb732b960891b604482015260640161053c565b6003546000906001600160a01b0316639390f68089612b6b8560016124ef565b6040516001600160e01b031960e085901b1681526001600160a01b0390921660048301526024820152604401602060405180830381865afa158015612bb4573d6000803e3d6000fd5b505050506040513d601f19601f82011682018060405250810190612bd891906137e0565b612bea90670de0b6b3a76400006139a0565b905086811015612c465760405162461bcd60e51b815260206004820152602160248201527f43616e6e6f74207769746864726177206d6f7265207468616e2062616c616e636044820152606560f81b606482015260840161053c565b6001600160a01b038816600090815260056020526040902054871115612cae5760405162461bcd60e51b815260206004820152601a60248201527f4e6f7420656e6f7567682071747920746f207769746864726177000000000000604482015260640161053c565b6001600160a01b03881660009081526005602052604081208054899290612cd690849061382e565b90915550506001600160a01b038216600090815260076020526040812054905b81811015613036576001600160a01b0384811660009081526007602052604090208054918c169183908110612d2d57612d2d613763565b60009182526020909120600160089092020101546001600160a01b031603612de4576001600160a01b038416600090815260076020526040902080548a919083908110612d7c57612d7c613763565b90600052602060002090600802016002016000828254612d9c919061382e565b90915550506001600160a01b0384166000908152600760205260409020805442919083908110612dce57612dce613763565b9060005260206000209060080201600601819055505b6001600160a01b0384166000908152600760205260409020805482908110612e0e57612e0e613763565b906000526020600020906008020160020154600003613024576001600160a01b0384166000908152600760205260409020805482908110612e5157612e51613763565b60009182526020808320600890920290910180546001600160a01b0319908116825560018083018054909216909155600282018490556003820184905560048201849055600582018490556006820184905560079182018490556001600160a01b03881684529152604090912090612ec9908461382e565b81548110612ed957612ed9613763565b906000526020600020906008020160076000866001600160a01b03166001600160a01b031681526020019081526020016000208281548110612f1d57612f1d613763565b60009182526020808320845460089093020180546001600160a01b03199081166001600160a01b03948516178255600180870154908301805490921690851617905560028086015490820155600380860154908201556004808601549082015560058086015490820155600680860154908201556007948501549085015590871682529190915260409020805480612fb757612fb7613841565b60008281526020812060086000199093019283020180546001600160a01b031990811682556001828101805490921690915560028201839055600382018390556004820183905560058201839055600682018390556007909101919091559155613021908361382e565b91505b8061302e8161378f565b915050612cf6565b50600061271061304760148b6139a0565b61305191906137f9565b9050600061305f828b61382e565b600154604051631ee144a160e31b81526001600160a01b038e8116600483015292935091169063f70a250890602401602060405180830381865afa1580156130ab573d6000803e3d6000fd5b505050506040513d601f19601f820116820180604052508101906130cf91906137be565b156131c9576004546040516001600160a01b039091169083156108fc029084906000818181858888f1935050505015801561310e573d6000803e3d6000fd5b506000856001600160a01b03168260405160006040518083038185875af1925050503d806000811461315c576040519150601f19603f3d011682016040523d82523d6000602084013e613161565b606091505b50509050806131c35760405162461bcd60e51b815260206004820152602860248201527f5472616e7366657220746f204c656e6465722077616c6c6574206e6f7420737560448201526718d8d95cdcd99d5b60c21b606482015260840161053c565b506132ab565b600154604051631ee144a160e31b81526001600160a01b038d811660048301529091169063f70a250890602401602060405180830381865afa158015613213573d6000803e3d6000fd5b505050506040513d601f19601f8201168201806040525081019061323791906137be565b61326357600454613253908c906001600160a01b03168461341e565b61325e8b868361341e565b6132ab565b60405162461bcd60e51b815260206004820152601c60248201527f4661696c656420746f205472616e736665722074686520546f6b656e00000000604482015260640161053c565b898b6001600160a01b0316866001600160a01b03167f9b1bfa7fa9ee420a16e124f794c35ac9f90472acc99140eb2f6447c714cad8eb60405160405180910390a46001985050505050505050506104f06001600055565b60026000540361332557604051633ee5aeb560e01b815260040160405180910390fd5b6002600055565b6040516001600160a01b0384811660248301528381166044830152606482018390526133939186918216906323b872dd906084015b604051602081830303815290604052915060e01b6020820180516001600160e01b0383818316178352505050506134d9565b50505050565b33600090815260086020526040812054815b818110156110fb5733600090815260086020526040902080546001600160a01b0386169190839081106133e0576133e0613763565b60009182526020909120600160089092020101546001600160a01b03160361340c575060019392505050565b806134168161378f565b9150506133ab565b6040516001600160a01b0383811660248301526044820183905261344f91859182169063a9059cbb90606401613361565b505050565b33600090815260076020526040812054815b818110156110fb5733600090815260076020526040902080546001600160a01b03861691908390811061349b5761349b613763565b60009182526020909120600160089092020101546001600160a01b0316036134c7575060019392505050565b806134d18161378f565b915050613466565b600080602060008451602086016000885af1806134fc576040513d6000823e3d81fd5b50506000513d91508115613514578060011415613521565b6001600160a01b0384163b155b1561339357604051635274afe760e01b81526001600160a01b038516600482015260240161053c565b80356001600160a01b038116811461356157600080fd5b919050565b6000806040838503121561357957600080fd5b6135828361354a565b91506135906020840161354a565b90509250929050565b6000602082840312156135ab57600080fd5b6135b48261354a565b9392505050565b602080825282518282018190526000919060409081850190868401855b8281101561361057815180516001600160a01b03168552868101518786015285015185850152606090930192908501906001016135d8565b5091979650505050505050565b602080825282518282018190526000919060409081850190868401855b8281101561361057815180516001600160a01b0390811686528782015116878601528581015186860152606080820151908601526080808201519086015260a0808201519086015260c0808201519086015260e09081015190850152610100909301929085019060010161363a565b600080604083850312156136bc57600080fd5b6136c58361354a565b946020939093013593505050565b6000602082840312156136e557600080fd5b5035919050565b60008060006060848603121561370157600080fd5b61370a8461354a565b92506137186020850161354a565b9150604084013590509250925092565b6000806040838503121561373b57600080fd5b6137448361354a565b915060208301356002811061375857600080fd5b809150509250929050565b634e487b7160e01b600052603260045260246000fd5b634e487b7160e01b600052601160045260246000fd5b6000600182016137a1576137a1613779565b5060010190565b634e487b7160e01b600052604160045260246000fd5b6000602082840312156137d057600080fd5b815180151581146135b457600080fd5b6000602082840312156137f257600080fd5b5051919050565b60008261381657634e487b7160e01b600052601260045260246000fd5b500490565b808201808211156104f0576104f0613779565b818103818111156104f0576104f0613779565b634e487b7160e01b600052603160045260246000fd5b60005b8381101561387257818101518382015260200161385a565b50506000910152565b60006020828403121561388d57600080fd5b815167ffffffffffffffff808211156138a557600080fd5b818401915084601f8301126138b957600080fd5b8151818111156138cb576138cb6137a8565b604051601f8201601f19908116603f011681019083821181831017156138f3576138f36137a8565b8160405282815287602084870101111561390c57600080fd5b61284e836020830160208801613857565b600061012060018060a01b038c1683528a151560208401528915156040840152881515606084015287151560808401528060a084015286518082850152610140915061396f8183860160208b01613857565b81601f19601f830116850101925050508460c08301528360e0830152826101008301529a9950505050505050505050565b80820281158282048414176104f0576104f0613779565b634e487b7160e01b600052602160045260246000fdfea2646970667358221220d2516d8d237487a3ce3dd1313091172abe873071799f380c6933c5fdecc6c1b264736f6c63430008140033",
  "linkReferences": {},
  "deployedLinkReferences": {}
}